:020000040000FA
:060000000A128A110C280F
:10000800FE00030EF1000A08F2000A128A15352FC5
:100018000A128A110F28F901FA0183133C3084006F
:100028004C300A128A15A5250A128A1183010A1270
:100038008A111E280A128A116C250A128A110A12BC
:100048008A15D9250A128A110A128A15AD250A12AB
:100058008A115130F3000030F4000A128A11F62791
:100068000A128A110030F300F4000A128A15912648
:100078000A128A11730883120313B5003508C500E4
:100088000A128A15B6250A128A110630831203133A
:10009800B7001330B600AD30B500B50B5128B60B1C
:1000A8005128B70B5128FF3083120313A2000030E8
:1000B800A3004A08B500B6013508F3003608F40075
:1000C8003230F5000030F6000A128A1540260A126E
:1000D8008A11740883120313A5007308A4000A1276
:1000E8008A1103250A128A118312031322080A129D
:1000F8008A113C260A128A110D3083120313B500A7
:100108003508F60002300A128A1522260A128A11C8
:10011800333083120313B5003508A8004708B6002A
:10012800B7013608A9003708AA004B300A128A110D
:1001380019240A128A114B30F5000030F6000A1211
:100148008A1576270A128A11333083120313B500F1
:100158003508A8004608B600B7013608A9003708D0
:10016800AA004B300A128A1119240A128A114B303C
:10017800F5000030F6000A128A1576270A128A114D
:10018800FF3083120313A2000030A3004508B50016
:10019800B6013508F3003608F4008D30F50001305B
:1001A800F6000A128A1540260A128A117408831268
:1001B8000313A5007308A4000A128A1103250A1262
:1001C8008A118312031322080A128A113C260A1282
:1001D8008A11F601F60A02300A128A1522260A1234
:1001E8008A11333083120313B5003508A800470875
:1001F800B600B7013608A9003708AA004B300A1222
:100208008A1119240A128A114B30F5000030F600C1
:100218000A128A1576270A128A11333083120313B9
:10022800B5003508A8004608B600B7013608A90089
:100238003708AA004B300A128A1119240A128A11A7
:100248004B30F5000030F6000A128A1576270A129C
:100258008A110A128A15AD250A128A113130F30063
:100268000030F4000A128A11F6270A128A110030A7
:10027800F300F4000A128A1591260A128A117308EB
:1002880083120313B5003508C4000A128A15B6256F
:100298000A128A11823083120313B600DD30B500CA
:1002A800B50B5429B60B54298312031349080A12B3
:1002B8008A113C260A128A11083083120313B500EA
:1002C8003508F60002300A128A1522260A128A1107
:1002D800333083120313B5003508A8004808B60068
:1002E800B7013608A9003708AA004B300A128A114C
:1002F80019240A128A114B30F5000030F6000A1250
:100308008A1576270A128A11333083120313B5002F
:100318003508A8004708B600B7013608A90037080D
:10032800AA004B300A128A1119240A128A114B307A
:10033800F5000030F6000A128A1576270A128A118B
:10034800333083120313B5003508A8004608B600F9
:10035800B7013608A9003708AA004B300A128A11DB
:1003680019240A128A114B30F5000030F6000A12DF
:100378008A1576270A128A110A128A15AD250A12D9
:100388008A11EE30F3000030F4000A128A11F627C1
:100398000A128A11F630F3000030F4000A128A11AA
:1003A800F6270A128A110A128A15B6250A128A1124
:1003B800823083120313B600DD30B500B50BE22995
:1003C800B60BE2290A128A15AD250A128A11EF30F6
:1003D800F3000030F4000A128A11F6270A128A1173
:1003E8000030F300F4000A128A1591260A128A11C5
:1003F800730883120313B5003508C2004208B5001C
:10040800B6013508B600B5013508BC003608BD0090
:100418000030F300F4000A128A1591260A128A1194
:10042800730883120313B5003508C2000A128A152F
:10043800B6250A128A11823083120313B600DD3002
:10044800B500B50B252AB60B252A831203134208DB
:100458003C05B500B6013508BC003608BD003C08AF
:10046800C83EBC003D080318013E033EBD00E8300D
:10047800A2000330A3003D08A5003C08A4000A120E
:100488008A1103250A128A11831203132308BD0057
:100498002208BC004408031D522A532AB02A0430FB
:1004A800B5003508F60002300A128A1522260A120B
:1004B8008A113930F5008030F6000A128A1576273D
:1004C8000A128A110A128A15AD250A128A115030A9
:1004D800F3000030F4000A128A11F6270A128A1172
:1004E8000130F3000030F4000A128A11F6270A12CC
:1004F8008A110A128A15B6250A128A118312031361
:1005080049080A128A150B260A128A110A128A1534
:10051800AD250A128A115030F3000030F4000A1297
:100528008A11F6270A128A110030F300F4000A1221
:100538008A11F6270A128A110A128A15B6250A1292
:100548008A11823083120313B600DD30B500B50B73
:10055800AB2AB60BAB2AC82A4403031DB42AB52A12
:10056800C82A0430B5003508F60002300A128A1588
:1005780022260A128A113630F5008030F6000A1257
:100588008A1576270A128A11FF3083120313A200F4
:100598000030A3004508B500B6013508F300360859
:1005A800F4009030F5000130F6000A128A15402652
:1005B8000A128A11740883120313A5007308A40091
:1005C8000A128A1103250A128A11831203132208B8
:1005D800B7002308B800FF30A2000030A3004A0883
:1005E800B900BA013908F3003A08F4003230F500CE
:1005F8000030F6000A128A1540260A128A11740879
:1006080083120313A5007308A4000A128A11032594
:100618000A128A11831203133808803ABB00230890
:10062800803A3B02031D1A2B22083702031C1D2B9C
:100638001E2B452B0A128A15AD250A128A11303055
:10064800F3000030F4000A128A11F6270A128A1100
:10065800F030F3000030F4000A128A11F6270A126B
:100668008A110A128A15B6250A128A118230831253
:100678000313B600DD30B500B50B402BB60B402B8D
:10068800B72BFF3083120313A2000030A3004508E4
:10069800B500B6013508F3003608F4009030F500CF
:1006A8000130F6000A128A1540260A128A117408C7
:1006B80083120313A5007308A4000A128A110325E4
:1006C8000A128A11831203132208B7002308B800FC
:1006D800FF30A2000030A3004A08B900BA01390867
:1006E800F3003A08F4003230F5000030F6000A1240
:1006F8008A1540260A128A11740883120313A5006A
:100708007308A4000A128A1103250A128A11831297
:1007180003133808803ABB002308803A3B02031DC4
:10072800972B2208370203189A2B9B2BB72B0A12F8
:100738008A15AD250A128A113030F3000030F40012
:100748000A128A11F6270A128A110030F300F400FF
:100758000A128A11F6270A128A110A128A15B62570
:100768000A128A113A2B673083120313BC00003037
:10077800BD003D08803AB50080303502031DC62B08
:1007880043083C02031CC92BCA2B23280A128A15CA
:10079800CC250A128A11F601F60A01300A128A15C6
:1007A80022260A128A112830F5008030F6000A1233
:1007B8008A1576270A128A11F601F60A02300A12F9
:1007C8008A1522260A128A111B30F5008030F6009D
:1007D8000A128A1576270A128A11831203133D0812
:1007E800803AB50080303502031DFC2B43083C02DB
:1007F8000318FF2B002CF12B0A128A15CC250A129C
:100808008A11F60101300A128A1522260A128A1163
:100818000B30F5008030F6000A128A1576270A1286
:100828008A1123280A128A110C2883120313B30091
:100838002930AB002B08AE00EC2C25303406031908
:10084800262C272C332C3408AB00330884002B08C3
:10085800831380000130AB002B08B307EC2CAF01E9
:100868000130A807FF30280784000A128A116A2776
:100878000A128A11B400AB00AC012C08003A031923
:10088800462CEC2C2B08003A0319FE2C643A031969
:10089800512C0D3A0319512CEC2C2E08840083138B
:1008A8000008B100840A0008B2000230AB002B082F
:1008B800AE07B21F602C612C6A2C0330AB002B08EA
:1008C800AF04B109B209B10A0319B20AB401B40AF2
:1008D8003408AB002B07013E84000A128A116A27EC
:1008E8000A128A11AC000A128A116A270A128A119E
:1008F800AD002D083202031D832C2C083102031889
:10090800862C872C882C922C0130AB002B08B4073E
:1009180005303406031D912C922C6C2C2F080339BA
:100928000319972C982CA32C2D30AB003308840086
:100938002B08831380000130AB002B08B307340861
:10094800AB002B08B000E32C0A30A3000030A40051
:100958003008AB002B07013E84000A128A116A276F
:100968000A128A11F3000A128A116A270A128A11D6
:10097800F4003208F6003108F5000A128A15BA2781
:100988000A128A11740883120313A6007308A500BB
:100998000A128A15F9260A128A11831203132308E8
:1009A800303EAC002C08B4003408AB003308840097
:1009B8002B08831380000130AB002B08B307FF30EE
:1009C800AB002B08B007300A031DEB2CEC2CA82C2D
:1009D8000130A807FF30280784000A128A116A2705
:1009E8000A128A11AB002B08B4003408031DFD2C31
:1009F800FE2C212C33088400831380010800831205
:100A08000313A801A31F092D0A2D112DA209A3095B
:100A1800A20A0319A30AA801A80AA51F142D152DB7
:100A28001E2DA409A509A40A0319A50A0130A600C8
:100A38002608A806A901AA01220823040319252DBE
:100A4800262D5D2DA701A70A342D01300310A20D14
:100A5800A30DFF3E031D2A2D0130A6002608A70777
:100A6800A31F372D382D292D01300310A90DAA0DEC
:100A7800FF3E031D392D23082502031D452D22089D
:100A88002402031C482D492D502D2208A4022308B6
:100A9800031CA503A502291401300310A30CA20C02
:100AA800FF3E031D512D0130A702031D5C2D5D2D56
:100AB800382D28080319612D622D672DA909AA0967
:100AC800A90A0319AA0A2A08A3002908A2000800EB
:100AD8000130831603178800890101308316031338
:100AE8008500033086008701880170308F048F11DC
:100AF8000F140830F3000030F4000A128A15652636
:100B08000A128A11831603130C170B178B17083058
:100B1800F3000030F4000130F5000030F600013039
:100B2800F7000030F8000A128A11AB270A128A115E
:100B38008B15033083160313950003309600811339
:100B4800003083120313AB000130AA008630A900DD
:100B5800A030A8000A128A15BF260A128A110A12A2
:100B68008A11A4260A128A110A128A15CC250A1299
:100B78008A11F60101300A128A1522260A128A11F0
:100B88000B30F5008030F6000A128A1576270A1213
:100B98008A116E3083120313B0003008C3000800B6
:100BA8000030F7000030F6000030F5000030F400A7
:100BB8008312031323082204210420040319E52DBA
:100BC800E62D332EF801F80AF62D0130F300031054
:100BD800A00DA10DA20DA30DF30BEB2D0130F30019
:100BE8007308F807A31FF92DFA2DE92D0130F3003A
:100BF8000310F40DF50DF60DF70DF30BFC2D23087E
:100C08002702031D112E22082602031D112E21087A
:100C18002502031D112E20082402031C142E152E54
:100C2800242E2008A4022108031C210FA502220853
:100C3800031C220FA6022308031C230FA702741407
:100C480001300310A30CA20CA10CA00CFF3E031D45
:100C5800252E0130F802031D322E332EFA2D770887
:100C6800A3007608A2007508A1007408A000080077
:100C780083120313B0006430A2000030A3003008D0
:100C8800AB00AC012B08A4002C08A5000A128A119D
:100C980003250A128A11831203132208AD002D08B6
:100CA800C8000A30A2000030A3003008AB00AC0135
:100CB8002B08F5002C08F6006430F3000030F4002F
:100CC8000A128A1105270A128A117408831203135B
:100CD800A5007308A4000A128A1103250A128A11B2
:100CE800831203132208AD002D08C7003008AB009B
:100CF800AC012B08F5002C08F6006430F300003036
:100D0800F4000A128A1105270A128A11740883123C
:100D18000313AF007308AE000A30F3000030F4008C
:100D28002F08F6002E08F5000A128A1105270A1264
:100D38008A11730883120313AB002B08C60008003E
:100D48008312031388013430F700F130F600F60BF4
:100D5800AB2EF70BAB2EB02E30300A128A15F725C2
:100D68000A128A110D30F700FB30F600F60BBA2E86
:100D7800F70BBA2EBF2E30300A128A15F7250A1241
:100D88008A111D30F7009130F600F60BC92EF70BCB
:100D9800C92E30300A128A15F7250A128A113830FE
:100DA8000A128A15F7250A128A1110300A128A15B2
:100DB800F7250A128A1101300A128A15F7250A1234
:100DC8008A1106300A128A15F7250A128A1110307C
:100DD8000A128A15F7250A128A110C300A128A1586
:100DE800F7250A128A110230F8000430F700BA30E9
:100DF800F600F60BFD2EF70BFD2EF80BFD2E00006E
:100E0800080083120313A101F61F0B2F0C2F132FB9
:100E1800F509F609F50A0319F60AA101A10AF41F52
:100E2800162F172F1C2FF309F409F30A0319F40AD4
:100E3800730874040319212F222F512FA001A00A2F
:100E4800302F01300310F30DF40DFF3E031D262F44
:100E58000130F7007708A007F41F332F342F252F10
:100E680074087602031D3A2F73087502031C3D2F80
:100E78003E2F442F7308F5027408031CF603F6028C
:100E880001300310F40CF30CFF3E031D452F013015
:100E9800A002031D502F512F342F21080319552F5D
:100EA800562F5B2FF509F609F50A0319F60A760895
:100EB800F4007508F3000800FF1B6A2F83137F18DE
:100EC80083170008840A0319FF0A080007308A00FC
:100ED8000408840A82070034013400340A340034D8
:100EE80064340034E834033410342734543465341B
:100EF8006D3420344C3475347A34203474342834C6
:100F080073342934203454344F3400345034523438
:100F18004534533449344F344E34203441344C34FE
:100F28005434413400345034523445344334413419
:100F38005534433449344F344E3400342534643402
:100F480000345334693400344E346F34003483121F
:100F58000313981783160313181218138312031315
:100F68001813C82F19308316031399001815831600
:100F780003178711D52F0C30831603139900181106
:100F8800831603178711D52F7408003A0319CD2F3C
:100F9800D52F7308043A0319B62F0C3A0319BF2F3B
:100FA800D52F75037604031DDA2FDB2FDF2F831669
:100FB80003139816E22F8316031398127703780405
:100FC800031DE72FE82FF22F831203131816831639
:100FD80003138C16831203138C12F52F8312031339
:100FE800181208000A128A15BF250A128A117308F6
:080FF8008312031393000800AB
:101B4A0064008001840A0406031900340406A62DE1
:101B5A000A128A15BF250A128A158316031311144D
:101B6A0008000A128A15BF250A128A15831603135A
:101B7A0011150800831603131419C42DC52DBF2D82
:101B8A0011081F39031DCA2DCB2DBF2D08000030A7
:101B9A000A128A15F7250A128A1501300A128A15BD
:101BAA00F7250A128A150800831203139F18DE2DDF
:101BBA00DF2DE62D2130F300F30BE12D8312031301
:101BCA009F140800F4008312031307157408880091
:101BDA0087141A30F300F30BF02D0000831203135D
:101BEA0087100800F500831203130711750888008F
:101BFA0087140D30F400FB30F300F30B022EF40BC4
:101C0A00022E072E8312031387100800F6001C2EDB
:101C1A000130F6020B30F5002630F4005D30F30097
:101C2A00F30B152EF40B152EF50B152E1C2E76081C
:101C3A00031D202E212E0D2E0800F7007703031D09
:101C4A00272E282E312E76080F3980380A128A1547
:101C5A00F7250A128A153F2E02307706031D362E03
:101C6A00372E3F2E76080F39C0380A128A15F72503
:101C7A000A128A150800F701F801731C452E462E30
:101C8A004C2E7508F7070318F80A7608F80701308A
:101C9A000310F50DF60DFF3E031D4D2E0130031006
:101CAA00F40CF30CFF3E031D542E73087404031D39
:101CBA005F2E602E422E7808F4007708F3000800A1
:101CCA00831203131F14C3309F05831603139F1334
:101CDA001F129F12831203139F10802E3F309F05FD
:101CEA00902E1F083F3940389F00902E1F083F3919
:101CFA0080389F00902E7408003A0319852E902E82
:101D0A007308013A0319732E053A0319762E0C3A11
:101D1A0003197B2E902E08000A128A15BF250A1273
:101D2A008A158316031391150A128A15BF250A12FA
:101D3A008A15831203131308F500F6017508F700D4
:101D4A007608F8000A128A15BF250A128A15730343
:101D5A007404031DB12EB22EB62E831603139112EC
:101D6A00B92E83160313911611167808F400770812
:101D7A00F300080028308312031394008316031318
:101D8A009101831203132808AC002908AD002A0820
:101D9A00AE002B08AF0002300310AC0DAD0DAE0D36
:101DAA00AF0DFF3E031DD12E2F08A3002E08A2005F
:101DBA002D08A1002C08A0000030A7007A30A60048
:101DCA001230A5000030A4000A128A11D4250A1282
:101DDA008A15831203132008FF3E83160313930008
:101DEA009401871507160800831203132308240495
:101DFA000319002F012F302FA701A70A0F2F013037
:101E0A000310A30DA40DFF3E031D052F0130F8009A
:101E1A007808A707A41F122F132F042F24082602BD
:101E2A00031D192F23082502031C1C2F1D2F232FE6
:101E3A002308A5022408031CA603A60201300310E6
:101E4A00A40CA30CFF3E031D242F0130A702031D7F
:101E5A002F2F302F132F2608A4002508A3000800CF
:101E6A00831203130C1F3A2F3B2F492F1F0CF0002C
:101E7A00700C0F39003A031D432F442F482F1E08B8
:101E8A00F0007008CA000C130B1C4C2F4D2F5D2F4D
:101E9A00061C502F512F562F0130F0007008C90729
:101EAA005C2F861C592F5A2F5C2F0130C9020B1048
:101EBA008C1E602F612F6F2F31301A06031D662F7B
:101ECA00672F6A2F3C0899006F2F1A08F0007008D4
:101EDA00C3008C1272088A00710E8300FE0E7E0EF9
:101EEA000900F701F8019B2F77087507A10076080A
:101EFA00A0000318A00AF71F832FA003831203135D
:101F0A002008A2002208FF00210884000A128A1170
:101F1A0060270A128A150A128A15E7250A128A15F3
:101F2A000130F7070318F80A0030F8077708750731
:101F3A0083120313A1007608A0000318A00AF71F52
:101F4A00A72FA003831203132008A2002208FF0070
:101F5A00210884000A128A1160270A128A15003A97
:101F6A00031DB82FB92F792F080083120313A1017B
:101F7A00A201730874040319C32FC42FFB2FA001F5
:101F8A00A00AD22F01300310F30DF40DFF3E031DFA
:101F9A00C82F0130F7007708A007F41FD52FD62FD6
:101FAA00C72F01300310A10DA20DFF3E031DD72F2D
:101FBA0074087602031DE32F73087502031CE62FCB
:101FCA00E72FEE2F7308F5027408031CF603F602D6
:101FDA00211401300310F40CF30CFF3E031DEF2F04
:101FEA000130A002031DFA2FFB2FD62F2208F4007E
:061FFA002108F3000800BD
:04400E00C420FF3F8C
:00000001FF
