:020000040000FA
:100000000A128A11F22FFF1B0D2883137F18831702
:100010000008840A0319FF0A080000308A00040857
:10002000840A82070034013400340A340034643412
:100030000034E834033410342734543465346D34D8
:1000400020344C3475347A34203474342834733486
:100050002934203454344F3400342534643400348B
:100104000A128A119E200A128A11831603131114EB
:1001140008000A128A119E200A128A1183160313F8
:10012400111508000A128A119E200A128A117008F9
:100134008312031393000800831603131419A328CE
:10014400A4289E2811081F39031DA928AA289E281F
:10015400080000300A128A11C8200A128A110130DC
:100164000A128A11C8200A128A110800F1008312A7
:10017400031307177108880087171A30F000F00B73
:10018400C12800008312031387130800F2008312AE
:10019400031307137208880087170D30F100FB3032
:1001A400F000F00BD328F10BD328D82883120313C3
:1001B40087130800F300ED280130F3020B30F2003E
:1001C4002630F1005D30F000F00BE628F10BE62854
:1001D400F20BE628ED287308031DF128F228DE2827
:1001E4000800F4007403031DF828F9280229730891
:1001F4000F3980380A128A11C8200A128A1110296C
:1002040002307406031D07290829102973080F39C1
:10021400C0380A128A11C8200A128A110800F4018F
:10022400F501701C162917291D297208F4070318F3
:10023400F50A7308F50701300310F20DF30DFF3EC4
:10024400031D1E2901300310F10CF00CFF3E031DA9
:10025400252970087104031D3029312913297508D3
:10026400F1007408F00008000A128A119E200A1294
:100274008A118316031391150A128A119E200A12F9
:100284008A11831203131308F200F3017208F400B5
:100294007308F5000A128A119E200A128A1170034B
:1002A4007104031D562957295B29831603139112E0
:1002B4005E2983160313911611167508F10074084C
:1002C400F0000800283083120313940083160313EC
:1002D4009101831203132008A4002108A500220819
:1002E400A6002308A70002300310A40DA50DA60D37
:1002F400A70DFF3E031D76292708F3002608F20008
:100304002508F1002408F0000030F7007A30F600E8
:100314001230F5000030F4000A128A11B4230A12D4
:100324008A117008FF3E8316031393009401871506
:10033400071608008316031788018901831603131F
:10034400850186018701880170308F048F110F1495
:10035400003083120313A3000130A2008630A100F1
:10036400A030A0000A128A1164210A128A110A120A
:100374008A11ED220A128A110A128A11AB200A127A
:100384008A11F30101300A128A11F3200A128A1128
:100394000B30F2008030F3000A128A110E220A1286
:1003A4008A110800780879040319D929DA29092A55
:1003B400FD01FD0AE82901300310F80DF90DFF3E97
:1003C400031DDE290130FC007C08FD07F91FEB2921
:1003D400EC29DD2979087B02031DF22978087A02C9
:1003E400031CF529F629FC297808FA027908031C6C
:1003F400FB03FB0201300310F90CF80CFF3E031D54
:10040400FD290130FD02031D082A092AEC297B0875
:10041400F9007A08F8000800F701F801332A770890
:100424007207F5007308F4000318F40AF71F1B2A77
:10043400F4037408F600760883120313FF007508AA
:1004440084000A128A1103200A128A110A128A11DC
:10045400B8200A128A110130F7070318F80A00308D
:10046400F80777087207F5007308F4000318F40A14
:10047400F71F3D2AF4037408F60076088312031369
:10048400FF00750884000A128A1103200A128A11D7
:10049400003A031D4E2A4F2A112A0800F501F601DD
:1004A400700871040319572A582A8F2AF701F70A8A
:1004B400662A01300310F00DF10DFF3E031D5C2A86
:1004C4000130F4007408F707F11F692A6A2A5B2ACD
:1004D40001300310F50DF60DFF3E031D6B2A710864
:1004E4007302031D772A70087202031C7A2A7B2A7E
:1004F400822A7008F2027108031CF303F3027514D4
:1005040001300310F10CF00CFF3E031D832A01306F
:10051400F702031D8E2A8F2A6A2A7608F1007508CD
:10052400F0000800F601F31F982A992AA02AF2097C
:10053400F309F20A0319F30AF601F60AF11FA32AD2
:10054400A42AA92AF009F109F00A0319F10A70088A
:1005540071040319AE2AAF2ADE2AF501F50ABD2A71
:1005640001300310F00DF10DFF3E031DB32A0130DD
:10057400F4007408F507F11FC02AC12AB22A7108D1
:100584007302031DC72A70087202031CCA2ACB2AED
:10059400D12A7008F2027108031CF303F30201303C
:1005A4000310F10CF00CFF3E031DD22A0130F502BA
:1005B400031DDD2ADE2AC12A76080319E22AE32A6A
:1005C400E82AF209F309F20A0319F30A7308F1009D
:1005D4007208F00008008312031388013430F40019
:1005E400F130F300F30BF42AF40BF42AF92A303037
:1005F4000A128A11C8200A128A110D30F400FB3045
:10060400F300F30B032BF40B032B082B30300A12EB
:100614008A11C8200A128A111D30F4009130F300A7
:10062400F30B122BF40B122B30300A128A11C82050
:100634000A128A1138300A128A11C8200A128A1141
:1006440010300A128A11C8200A128A1101300A12C3
:100654008A11C8200A128A1106300A128A11C82087
:100664000A128A1110300A128A11C8200A128A1139
:100674000C300A128A11C8200A128A110230F500BD
:100684000430F400BA30F300F30B462BF40B462B82
:10069400F50B462B0000080083120313A9006430F5
:1006A400F7000030F8002908A400A5012408F90087
:1006B4002508FA000A128A111A240A128A117708E4
:1006C40083120313A6002608B4000A30F700003092
:1006D400F8002908A400A5012408F2002508F30065
:1006E4006430F0000030F1000A128A1194220A12D8
:1006F4008A117108FA007008F9000A128A111A2482
:100704000A128A11770883120313A6002608B3007D
:100714002908A400A5012408F2002508F300643088
:10072400F0000030F1000A128A1194220A128A1190
:10073400710883120313A8007008A7000A30F000A0
:100744000030F1002808F3002708F2000A128A1189
:1007540094220A128A11700883120313A400240835
:10076400B20008000030FC000030FB000030FA004A
:100774000030F90073087204710470040319C32B68
:10078400C42B112CFD01FD0AD42B0130F8000310F9
:10079400F00DF10DF20DF30DF80BC92B0130F8003B
:1007A4007808FD07F31FD72BD82BC72B0130F8008F
:1007B4000310F90DFA0DFB0DFC0DF80BDA2B730881
:1007C4007702031DEF2B72087602031DEF2B7108CD
:1007D4007502031DEF2B70087402031CF22BF32B1C
:1007E400022C7008F4027108031C710FF5027208E0
:1007F400031C720FF6027308031C730FF7027914BB
:1008040001300310F30CF20CF10CF00CFF3E031D4D
:10081400032C0130FD02031D102C112CD82B7C0855
:10082400F3007B08F2007A08F1007908F000080070
:1008340083120313A101F81F202C212C282CF70963
:10084400F809F70A0319F80AA101A10AFA1F2B2CC7
:100854002C2C352CF909FA09F90A0319FA0A013082
:10086400FB007B08A106A201A30177087804031901
:100874003C2C3D2C742CA001A00A4B2C01300310FD
:10088400F70DF80DFF3E031D412C0130FB007B08E2
:10089400A007F81F4E2C4F2C402C01300310A20D42
:1008A400A30DFF3E031D502C78087A02031D5C2C17
:1008B40077087902031C5F2C602C672C7708F902F7
:1008C4007808031CFA03FA02221401300310F80C0E
:1008D400F70CFF3E031D682C0130A002031D732C8E
:1008E400742C4F2C21080319782C792C7E2CA20906
:1008F400A309A20A0319A30A2308F8002208F7008F
:10090400080083120313AB002130A3002308A600C0
:10091400542D25302C060319902C912C9D2C2C0839
:10092400A3002B0884002308831380000130A30054
:100934002308AB07542DA7010130A007FF3020077F
:1009440084000A128A110D200A128A11AC00A30035
:10095400A4012408003A0319B02C542D2308003AAA
:100964000319662D643A0319BB2C0D3A0319BB2CE9
:10097400542D2608840083130008A900840A000863
:10098400AA000230A3002308A607AA1FCA2CCB2C56
:10099400D42C0330A3002308A704A909AA09A90A8F
:1009A4000319AA0AAC01AC0A2C08A3002307013ED0
:1009B40084000A128A110D200A128A11A4000A1254
:1009C4008A110D200A128A11A50025082A02031D86
:1009D400ED2C240829020318F02CF12CF22CFC2C09
:1009E4000130A3002308AC0705302C06031DFB2CA3
:1009F400FC2CD62C270803390319012D022D0D2DAB
:100A04002D30A3002B0884002308831380000130B9
:100A1400A3002308AB072C08A3002308A8004B2D30
:100A24000A30F8000030F9002808A3002307013E2B
:100A340084000A128A110D200A128A11F0000A1287
:100A44008A110D200A128A11F1002A08F3002908DC
:100A5400F2000A128A1150220A128A117108FB004C
:100A64007008FA000A128A11D4210A128A1178082D
:100A7400303E83120313A4002408AC002C08A30006
:100A84002B0884002308831380000130A30023086B
:100A9400AB07FF30A3002308A807280A031D532D22
:100AA400542D122D0130A007FF30200784000A12B4
:100AB4008A110D200A128A11A3002308AC002C0805
:100AC400031D652D662D8B2C2B0884008313800158
:100AD40008000A128A119C210A128A110A128A1128
:100AE40082200A128A115130F0000030F1000A12FB
:100AF4008A1194200A128A110030F000F1000A12BF
:100B04008A1136210A128A11700883120313AD0068
:100B14002D08B6000A128A118B200A128A1182301B
:100B240083120313AE00DD30AD00AD0B972DAE0B79
:100B3400972DFF30F7000030F800831203133608B6
:100B4400AD00AE012D08F0002E08F1003230F200A5
:100B54000030F3000A128A1111210A128A11710855
:100B6400FA007008F9000A128A111A240A128A116A
:100B740077080A128A114E230A128A110D30831241
:100B84000313AD002D08F30002300A128A11F3207A
:100B94000A128A111B3083120313AD002D08A00022
:100BA4003308AE00AF012E08A1002F08A200373091
:100BB4000A128A1183240A128A113730F200003093
:100BC400F3000A128A110E220A128A111B308312B0
:100BD4000313AD002D08A0003208AE00AF012E08AB
:100BE400A1002F08A20037300A128A1183240A12A6
:100BF4008A113730F2000030F3000A128A110E22F3
:100C04000A128A110A128A1182200A128A11513098
:100C1400F0000030F1000A128A1194200A128A119D
:100C24000030F000F1000A128A1136210A128A11EA
:100C3400700883120313AD002D08B1000A128A1143
:100C44008B200A128A11823083120313AE00DD3026
:100C5400AD00AD0B2B2EAE0B2B2E831203133108DC
:100C64000A128A114E230A128A11F301F30A02307E
:100C74000A128A11F3200A128A111B3083120313F9
:100C8400AD002D08A0003308AE00AF012E08A1006E
:100C94002F08A20037300A128A1183240A128A11FB
:100CA4003730F2000030F3000A128A110E220A12C1
:100CB4008A111B3083120313AD002D08A0003208E3
:100CC400AE00AF012E08A1002F08A20037300A128F
:100CD4008A1183240A128A113730F2000030F3009B
:100CE4000A128A110E220A128A110A128A11822009
:100CF4000A128A113130F0000030F1000A128A1110
:100D040094200A128A110030F000F1000A128A11AC
:100D140036210A128A11700883120313AD002D08BC
:100D2400B5000A128A118B200A128A1182308312AA
:100D34000313AE00DD30AD00AD0B9E2EAE0B9E2E28
:100D44008312031335080A128A114E230A128A11D8
:100D5400083083120313AD002D08F30002300A1289
:100D64008A11F3200A128A111B3083120313AD0077
:100D74002D08A0003408AE00AF012E08A1002F08F2
:100D8400A20037300A128A1183240A128A113730DA
:100D9400F2000030F3000A128A110E220A128A119C
:100DA4001B3083120313AD002D08A0003308AE00DE
:100DB400AF012E08A1002F08A20037300A128A11B1
:100DC40083240A128A113730F2000030F3000A1229
:100DD4008A110E220A128A111B3083120313AD00EA
:100DE4002D08A0003208AE00AF012E08A1002F0884
:100DF400A20037300A128A1183240A128A1137306A
:100E0400F2000030F3000A128A110E220A128A112B
:100E1400FF30F7000030F800831203133608AD00EA
:100E2400AE012D08F0002E08F1003230F20000303F
:100E3400F3000A128A1111210A128A117108FA00A8
:100E44007008F9000A128A111A240A128A11780801
:100E5400803A803C031D322F77088312031331023A
:100E6400031C352F362F5D2F0A128A1182200A1295
:100E74008A113030F0000030F1000A128A119420F7
:100E84000A128A110F30F0000030F1000A128A11A0
:100E940094200A128A110A128A118B200A128A11CA
:100EA400823083120313AE00DD30AD00AD0B582F3A
:100EB400AE0B582FA52FFF30F7000030F800831237
:100EC40003133608AD00AE012D08F0002E08F10022
:100ED4003230F2000030F3000A128A1111210A1292
:100EE4008A117108FA007008F9000A128A111A248A
:100EF4000A128A117808803A803C031D852F7708EE
:100F04008312031331020318882F892FA52F0A1285
:100F14008A1182200A128A113030F0000030F10068
:100F24000A128A1194200A128A110030F000F1008A
:100F34000A128A1194200A128A110A128A118B2029
:100F44000A128A11522F0A128A1182200A128A1155
:100F54005030F0000030F1000A128A1194200A1275
:100F64008A110130F0000030F1000A128A11942035
:100F74000A128A110A128A118B200A128A11831208
:100F8400031335080A128A11DC200A128A110A1284
:100F94008A1182200A128A115030F0000030F100C8
:100FA4000A128A1194200A128A110030F000F1000A
:100FB4000A128A1194200A128A110A128A118B20A9
:100FC4000A128A11823083120313AE00DD30AD00A1
:100FD400AD0BEA2FAE0BEA2F702D0A128A110028EE
:100FE40083120313B001B101B201B301B401B5011D
:0C0FF400B601B70183010A128A116B2DAF
:04400E00C420FF3F8C
:00000001FF
