:020000040000FA
:060000000A128A110E280D
:10000800FE00030E83120313A6000A08A7000A12B3
:100018008A114A2D0A128A111128FB01FC01FD01DF
:1000280083120313CA01CB01CC01CD01CE01CF014C
:10003800D001D101D201D301D401D501D601D70114
:10004800D80183010A128A1129280A128A11C325A4
:100058000A128A110A128A15F9240A128A110A1236
:100068008A15C3240A128A11513083120313A80077
:100078000030A9000A128A15D5240A128A11003004
:1000880083120313A800A9000A128A15BE250A12B2
:100098008A11831203132808C3004308FD000A12BB
:1000A8008A15CC240A128A11063083120313C5005C
:1000B8001330C400AD30C300C30B6028C40B6028E4
:1000C800C50B6028FF3083120313AF000030B00067
:1000D8005708C300C4014308A8004408A9003230E7
:1000E800AA000030AB000A128A11D5270A128A1119
:1000F800831203132908B2002808B1000A128A11D2
:1001080033260A128A11831203132F080A128A153A
:1001180098270A128A110D3083120313C30043086B
:10012800AB0002300A128A154D250A128A113330A3
:1001380083120313C3004308B6005408C400C50162
:100148004408B7004508B80058300A128A116024DC
:100158000A128A11583083120313AA000030AB0028
:100168000A128A1566260A128A113330831203137B
:10017800C3004308B6005308C400C5014408B700CB
:100188004508B80058300A128A1160240A128A11E8
:10019800583083120313AA000030AB000A128A15E4
:1001A80066260A128A11FF3083120313AF0000304B
:1001B800B0007D08C300C4014308A8004408A90092
:1001C8008D30AA000130AB000A128A11D5270A1215
:1001D8008A11831203132908B2002808B1000A12F1
:1001E8008A1133260A128A11831203132F080A125E
:1001F8008A1598270A128A1183120313AB01AB0AD6
:1002080002300A128A154D250A128A1133308312D8
:100218000313C3004308B6005408C400C5014408CA
:10022800B7004508B80058300A128A1160240A122B
:100238008A11583083120313AA000030AB000A1247
:100248008A1566260A128A11333083120313C300F3
:100258004308B6005308C400C5014408B700450860
:10026800B80058300A128A1160240A128A115830CC
:1002780083120313AA000030AB000A128A156626FF
:100288000A128A110A128A15C3240A128A113130F5
:1002980083120313A8000030A9000A128A15D52476
:1002A8000A128A11003083120313A800A9000A1247
:1002B8008A15BE250A128A11831203132808C3005F
:1002C8004308D2000A128A15CC240A128A118230F5
:1002D80083120313C400DD30C300C30B7129C40BA0
:1002E80071298312031356080A128A1598270A12CD
:1002F8008A11083083120313C3004308AB0002308D
:100308000A128A154D250A128A11333083120313F3
:10031800C3004308B6005508C400C5014408B70027
:100328004508B80058300A128A1160240A128A1146
:10033800583083120313AA000030AB000A128A1542
:1003480066260A128A11333083120313C300430846
:10035800B6005408C400C5014408B7004508B800F1
:1003680058300A128A1160240A128A1158308312EE
:100378000313AA000030AB000A128A1566260A1277
:100388008A11333083120313C3004308B60053089D
:10039800C400C5014408B7004508B80058300A121F
:1003A8008A1160240A128A11583083120313AA0092
:1003B8000030AB000A128A1566260A128A110A1240
:1003C8008A15C3240A128A11EE3083120313A80077
:1003D8000030A9000A128A15D5240A128A11F630AB
:1003E80083120313A8000030A9000A128A15D52425
:1003F8000A128A110A128A15CC240A128A1182302A
:1004080083120313C400DD30C300C30B092AC40BD5
:10041800092A0A128A15C3240A128A11EF30831294
:100428000313A8000030A9000A128A15D5240A125D
:100438008A11003083120313A800A9000A128A1532
:10044800BE250A128A11831203132808C300430821
:10045800D0005008C300C4014308C400C3014308C6
:10046800FB004408FC000030A800A9000A128A1505
:10047800BE250A128A11831203132808C3004308F1
:10048800D0000A128A15CC240A128A1182308312EB
:100498000313C400DD30C300C30B502AC40B502A19
:1004A8008312031350087B05C300C4014308FB00F3
:1004B8004408FC007B08C83EFB007C080318013E8A
:1004C800033EFC00E830AF000330B0007C08B20007
:1004D8007B08B1000A128A1133260A128A11831284
:1004E80003133008FC002F08FB005208031D7D2A67
:1004F8007E2AE52A0430C3004308AB0002300A1202
:100508008A154D250A128A11393083120313AA005D
:100518008030AB000A128A1566260A128A110A125E
:100528008A15C3240A128A11503083120313A800B3
:100538000030A9000A128A15D5240A128A1101303E
:1005480083120313A8000030A9000A128A15D524C3
:100558000A128A110A128A15CC240A128A118312E5
:10056800031356080A128A1531250A128A110A122B
:100578008A15C3240A128A11503083120313A80063
:100588000030A9000A128A15D5240A128A110030EF
:1005980083120313A800A9000A128A15D5240A1287
:1005A8008A110A128A15CC240A128A1182308312FF
:1005B8000313C400DD30C300C30BE02AC40BE02AD8
:1005C800FF2A5203031DE92AEA2AFF2A0430C3003E
:1005D8004308AB0002300A128A154D250A128A1107
:1005E800363083120313AA008030AB000A128A1532
:1005F80066260A128A11FF3083120313AF000030F7
:10060800B0007D08C300C4014308A8004408A9003D
:100618009030AA000130AB000A128A11D5270A12BD
:100628008A11831203132908B2002808B1000A129C
:100638008A1133260A128A11831203132F08C50060
:100648003008C600FF30AF000030B0005708C700C0
:10065800C8014708A8004808A9003230AA0000309D
:10066800AB000A128A11D5270A128A1183120313C2
:100678002908B2002808B1000A128A1133260A1282
:100688008A11831203134608803AC9003008803A59
:100698004902031D512B2F084502031C542B552BCF
:1006A800802B0A128A15C3240A128A113030831249
:1006B8000313A8000030A9000A128A15D5240A12CB
:1006C8008A11F03083120313A8000030A9000A121F
:1006D8008A15D5240A128A110A128A15CC240A12FC
:1006E8008A11823083120313C400DD30C300C30BA8
:1006F8007B2BC40B7B2BF62BFF3083120313AF002D
:100708000030B0007D08C300C4014308A8004408B5
:10071800A9009030AA000130AB000A128A11D5272F
:100728000A128A11831203132908B2002808B1009B
:100738000A128A1133260A128A11831203132F0808
:10074800C5003008C600FF30AF000030B0005708C1
:10075800C700C8014708A8004808A9003230AA0005
:100768000030AB000A128A11D5270A128A118312A7
:1007780003132908B2002808B1000A128A11332687
:100788000A128A11831203134608803AC9003008F6
:10079800803A4902031DD22B2F0845020318D52B96
:1007A800D62BF62B0A128A15C3240A128A11303066
:1007B80083120313A8000030A9000A128A15D52451
:1007C8000A128A11003083120313A800A9000A1222
:1007D8008A15D5240A128A110A128A15CC240A12FB
:1007E8008A11752B7C08803A83120313C30080306A
:1007F8004302031D012C51087B02031C042C052C09
:100808002E280A128A15EC240A128A11831203135D
:10081800AB01AB0A01300A128A154D250A128A115A
:10082800283083120313AA008030AB000A128A15FD
:1008380066260A128A1183120313AB01AB0A02302F
:100848000A128A154D250A128A111B3083120313C6
:10085800AA008030AB000A128A1566260A128A118D
:100868007C08803A83120313C30080304302031DBF
:100878003F2C51087B020318422C432C342C0A12BB
:100888008A15EC240A128A1183120313AB01013072
:100898000A128A154D250A128A110B308312031386
:1008A800AA008030AB000A128A1566260A128A113D
:1008B8002E280A128A110E2883120313C10037301A
:1008C800B9003908BC00332D2530420603196D2CB8
:1008D8006E2C7A2C4208B900410884003908831329
:1008E80080000130B9003908C107332DBD0101303E
:1008F800B607FF30360784000A128A150A200A1242
:100908008A11C200B900BA013A08003A03198D2CBD
:10091800332D3908003A0319452D643A0319982CE8
:100928000D3A0319982C332D3C08840083130008D2
:10093800BF00840A0008C0000230B9003908BC07AB
:10094800C01FA72CA82CB12C0330B9003908BD044E
:10095800BF09C009BF0A0319C00AC201C20A420876
:10096800B9003907013E84000A128A150A200A12C2
:100978008A11BA000A128A150A200A128A11BB00C3
:100988003B084002031DCA2C3A083F020318CD2C2D
:10099800CE2CCF2CD92C0130B9003908C20705302C
:1009A8004206031DD82CD92CB32C3D080339031952
:1009B800DE2CDF2CEA2C2D30B900410884003908E0
:1009C800831380000130B9003908C1074208B90013
:1009D8003908BE002A2D0A30B0000030B1003E08A8
:1009E800B9003907013E84000A128A150A200A1242
:1009F8008A11A8000A128A150A200A128A11A90067
:100A08004008AB003F08AA000A128A15AC260A1251
:100A18008A11831203132908B3002808B2000A12A6
:100A28008A152A260A128A11831203133008303EC7
:100A3800BA003A08C2004208B900410884003908DF
:100A4800831380000130B9003908C107FF30B900AD
:100A58003908BE073E0A031D322D332DEF2C013015
:100A6800B607FF30360784000A128A150A200A12D0
:100A78008A11B9003908C2004208031D442D452DCA
:100A8800682C410884008313800108000C1F4D2D39
:100A98004E2D5C2D1F0CA400240C0F39003A031DA9
:100AA800562D572D5B2D1E08A4002408D7000C13C3
:100AB8000B1C5F2D602D702D061C632D642D692D78
:100AC8000130A4002408D6076F2D861C6C2D6D2DCF
:100AD8006F2D0130D6020B108C1E732D742DBC2D7A
:100AE80031301A06031D792D7A2DB62D7B08990011
:100AF80083160313981C812D822D7C2DFF30F60060
:100B08000030F7007D0883120313A400A501240810
:100B1800F0002508F1008D30F2000130F3000A12D0
:100B28008A156D250A128A117108F9007008F800F3
:100B38000A128A119C260A128A1176088312031354
:100B4800990083160313981CAA2DAB2DA52D83128B
:100B580003135208990083160313981CB42DB52D5E
:100B6800AF2DBA2D1A08A4002408D10083128C12C4
:100B780027088A00260E8300FE0E7E0E090001302B
:100B88008316031788008901013083160313850033
:100B9800033086008701880170308F048F110F148D
:100BA800083083120313A8000030A9000A128A151E
:100BB80092250A128A11831603130C170B178B1729
:100BC800083083120313A8000030A9000130AA00DE
:100BD8000030AB000130AC000030AD000A128A15BD
:100BE800F2260A128A118B15033083160313950017
:100BF800033096008113003083120313B9000130CB
:100C0800B8008630B700A030B6000A128A15F02561
:100C18000A128A110A128A1105270A128A110A125F
:100C28008A15EC240A128A1183120313AB010130CE
:100C38000A128A154D250A128A110B3083120313E2
:100C4800AA008030AB000A128A1566260A128A1199
:100C58006E3083120313BE003E08D10008008312D1
:100C68000313B501B01F392E3A2E412EAF09B00932
:100C7800AF0A0319B00AB501B50AB21F442E452EB2
:100C88004E2EB109B209B10A0319B20A0130B300F4
:100C98003308B506B601B7012F0830040319552EDD
:100CA800562E8D2EB401B40A642E01300310AF0DF8
:100CB800B00DFF3E031D5A2E0130B3003308B407B0
:100CC800B01F672E682E592E01300310B60DB70DD0
:100CD800FF3E031D692E30083202031D752E2F08B2
:100CE8003102031C782E792E802E2F08B10230088D
:100CF800031CB203B202361401300310B00CAF0C5F
:100D0800FF3E031D812E0130B402031D8C2E8D2E53
:100D1800682E35080319912E922E972EB609B70919
:100D2800B60A0319B70A3708B0003608AF0008003A
:100D380083120313A101F71FA22EA32EAA2EF609D0
:100D4800F709F60A0319F70AA101A10AF91FAD2E3E
:100D5800AE2EB72EF809F909F80A0319F90A013075
:100D6800FA007A08A106A201A301760877040319FC
:100D7800BE2EBF2EF62EA001A00ACD2E01300310E4
:100D8800F60DF70DFF3E031DC32E0130FA007A0859
:100D9800A007F71FD02ED12EC22E01300310A20DAE
:100DA800A30DFF3E031DD22E77087902031DDE2E08
:100DB80076087802031CE12EE22EE92E7608F80266
:100DC8007708031CF903F902221401300310F70C09
:100DD800F60CFF3E031DEA2E0130A002031DF52E7E
:100DE800F62ED12E21080319FA2EFB2E002FA20968
:100DF800A309A20A0319A30A2308F7002208F60088
:100E08000800831203138801343083120313AC00E3
:100E1800F130AB00AB0B0E2FAC0B0E2F30300A129B
:100E28008A151C250A128A110D3083120313AC008F
:100E3800FB30AB00AB0B1E2FAC0B1E2F30300A1251
:100E48008A151C250A128A111D3083120313AC005F
:100E58009030AB00AB0B2E2FAC0B2E2F0000303098
:100E68000A128A151C250A128A1138300A128A15A4
:100E78001C250A128A1110300A128A151C250A121A
:100E88008A1101300A128A151C250A128A110630A5
:100E98000A128A151C250A128A1110300A128A159C
:100EA8001C250A128A110C300A128A151C250A12EE
:100EB8008A11023083120313AD000430AC00B9303C
:100EC800AB00AB0B652FAC0B652FAD0B652F6C2FF3
:100ED8000800003083120313B4000030B300003060
:100EE800B2000030B1002B082A0429042804031991
:100EF8007E2F7F2FCC2FB501B50A8F2F0130B00080
:100F08000310A80DA90DAA0DAB0DB00B842F01304D
:100F1800B0003008B507AB1F922F932F822F0130F6
:100F2800B0000310B10DB20DB30DB40DB00B952F79
:100F38002B082F02031DAA2F2A082E02031DAA2FF1
:100F480029082D02031DAA2F28082C02031CAD2FE7
:100F5800AE2FBD2F2808AC022908031C290FAD02AB
:100F68002A08031C2A0FAE022B08031C2B0FAF0202
:100F7800311401300310AB0CAA0CA90CA80CFF3ECD
:100F8800031DBE2F0130B502031DCB2FCC2F932F8D
:100F98003408AB003308AA003208A9003108A800B9
:100FA800080083120313AC01AD01281CDC2FDD2FD0
:100FB800E32F2A08AC070318AD0A2B08AD07013048
:100FC8000310AA0DAB0DFF3E031DE42F01300310E3
:100FD800A90CA80CFF3E031DEB2F28082904031DAC
:100FE800F62FF72FD92F2D08A9002C08A8000800E4
:10100000FF1B0A2883137F1883170008840A03191B
:10101000FF0A080008308A000408840A82070034A6
:10102000013400340A34003464340034E8340334C6
:1010300010342734543465346D3420344C347534D2
:101040007A342034743428347334293420345434BA
:101050004F340034503452344534533449344F34CF
:101060004E34203441344C34543441340034503400
:1010700052344534433441345534433449344F3485
:101080004E3400342534643400345334693400342D
:061090004E346F34003401
:101986000A128A15DF240A128A1583160313111404
:1019960008000A128A15DF240A128A158316031311
:1019A600111508000A128A15DF240A128A158312F5
:1019B6000313280893000800831603131419E42C54
:1019C600E52CDF2C11081F39031DEA2CEB2CDF2C2C
:1019D600080000300A128A151C250A128A150130E1
:1019E6000A128A151C250A128A1508008312031387
:1019F6009F18FE2CFF2C092D203083120313A800FC
:101A0600A80B032D0000831203139F1408008312F2
:101A16000313A900071529088800871419308312B3
:101A26000313A800A80B152D182D83120313871076
:101A3600080083120313AA0007112A0888008714D6
:101A46000D3083120313A900FB30A800A80B292D23
:101A5600A90B292D83120313871008008312031381
:101A6600AB00452D0130AB020B3083120313AA00E5
:101A76002630A9005D30A800A80B3F2DA90B3F2DED
:101A8600AA0B3F2D831203132B08031D4B2D4C2D40
:101A9600352D080083120313AC002C03031D542DAF
:101AA600552D5E2D2B080F3980380A128A151C25F4
:101AB6000A128A156C2D02302C06031D632D642D27
:101AC6006C2D2B080F39C0380A128A151C250A12EC
:101AD6008A150800F401F501701C722D732D792DFD
:101AE6007208F4070318F50A7308F50701300310A6
:101AF600F20DF30DFF3E031D7A2D01300310F10C9C
:101B0600F00CFF3E031D812D70087104031D8C2D02
:101B16008D2D6F2D7508F1007408F00008008312F2
:101B260003131F14C3309F05831603139F131F123D
:101B36009F12831203139F10AD2D3F309F05BD2DBD
:101B46001F083F3940389F00BD2D1F083F39803898
:101B56009F00BD2D2908003A0319B22DBD2D280876
:101B6600013A0319A02D053A0319A32D0C3A0319BE
:101B7600A82DBD2D08000A128A15DF240A128A151F
:101B86008316031391150A128A15DF240A128A1581
:101B9600831203131308AA00AB012A08AC002B0812
:101BA600AD000A128A15DF240A128A15831203135E
:101BB60028032904031DE02DE12DE52D83160313CB
:101BC6009112E82D8316031391161116831203132F
:101BD6002D08A9002C08A80008002830831203133A
:101BE6009400831603139101831203133608BA0077
:101BF6003708BB003808BC003908BD0002300310A6
:101C0600BA0DBB0DBC0DBD0DFF3E031D022E3D08DA
:101C1600AB003C08AA003B08A9003A08A80000301F
:101C2600AF007A30AE001230AD000030AC000A12C0
:101C36008A116D270A128A15831203132808FF3E9C
:101C46008316031393009401871507160800831261
:101C56000313300831040319312E322E612EB501DB
:101C6600B50A402E01300310B00DB10DFF3E031D25
:101C7600362E0130B4003408B507B11F432E442E6A
:101C8600352E31083302031D4A2E30083202031C5A
:101C96004D2E4E2E542E3008B2023108031CB303CB
:101CA600B30201300310B10CB00CFF3E031D552EDC
:101CB6000130B502031D602E612E442E3308B1009B
:101CC6003208B000080083120313AF01B0018F2E53
:101CD6002F082A07AD002B08AC000318AC0AAF1F6B
:101CE600752EAC03831203132C08AE002E08FF00DA
:101CF6002D0884000A128A1500200A128A150A1273
:101D06008A150A250A128A15013083120313AF07B2
:101D16000318B00A0030B0072F082A07AD002B08B9
:101D2600AC000318AC0AAF1F992EAC038312031341
:101D36002C08AE002E08FF002D0884000A128A1512
:101D460000200A128A15003A031DAA2EAB2E6B2E0E
:101D5600080083120313AD01AE01280829040319F4
:101D6600B52EB62EED2EAF01AF0AC42E01300310EC
:101D7600A80DA90DFF3E031DBA2E0130AC002C089C
:101D8600AF07A91FC72EC82EB92E01300310AD0DFF
:101D9600AE0DFF3E031DC92E29082B02031DD52EAD
:101DA60028082A02031CD82ED92EE02E2808AA02BB
:101DB6002908031CAB03AB022D1401300310A90C38
:101DC600A80CFF3E031DE12E0130AF02031DEC2ED1
:101DD600ED2EC82E2E08A9002D08A8000800831293
:101DE6000313981783160313181218138312031379
:101DF60018130F2F1930831603139900181583161D
:101E0600031787111C2F0C30831603139900181122
:101E16008316031787111C2F2908003A0319142F5C
:101E26001C2F2808043A0319FD2E0C3A0319062F15
:101E36001C2F831203132A032B04031D232F242F85
:101E4600282F8316031398162B2F83160313981225
:101E5600831203132C032D04031D322F332F3B2F24
:101E66001816831603138C16831203138C123C2F39
:101E76001812080083120313AE01AB1F432F442F21
:101E86004B2FAA09AB09AA0A0319AB0AAE01AE0A7F
:101E9600A91F4E2F4F2F542FA809A909A80A0319C5
:101EA600A90A280829040319592F5A2F892FAD0189
:101EB600AD0A682F01300310A80DA90DFF3E031DC2
:101EC6005E2F0130AC002C08AD07A91F6B2F6C2FBD
:101ED6005D2F29082B02031D722F28082A02031CD6
:101EE600752F762F7C2F2808AA022908031CAB031E
:101EF600AB0201300310A90CA80CFF3E031D7D2F79
:101F06000130AD02031D882F892F6C2F2E0803196F
:101F16008D2F8E2F932FAA09AB09AA0A0319AB0A94
:101F26002B08A9002A08A800080083120313BD0085
:101F36006430AF000030B0003D08B800B901380881
:101F4600B1003908B2000A128A1133260A128A151C
:101F5600831203132F08BA003A08D5000A30AF00DF
:101F66000030B0003D08B800B9013808AA003908A9
:101F7600AB006430A8000030A9000A128A153D277C
:101F86000A128A15831203132908B2002808B10021
:101F96000A128A1133260A128A15831203132F088E
:101FA600BA003A08D4003D08B800B9013808AA00BA
:101FB6003908AB006430A8000030A9000A128A155F
:101FC6003D270A128A15831203132908BC00280824
:101FD600BB000A30A8000030A9003C08AB003B0853
:101FE600AA000A128A153D270A128A1583120313BC
:0A1FF6002808B8003808D3000800DE
:04400E00C420FF3F8C
:00000001FF
