:020000040000FA
:100000000A128A11F42FFF1B0D2883137F18831700
:100010000008840A0319FF0A080000308A00040857
:10002000840A82070034013400340A340034643412
:100030000034E83403341034273450346F347434CB
:100040003A342034203443346F346E343A3420341C
:1000500000342534643420342034003420342034F7
:0600600025346434003475
:10043A000A128A1139220A128A1183160313111415
:10044A0008000A128A1139220A128A118316031322
:10045A00111508000A128A1139220A128A11700823
:10046A0083120313930008008316031314193E2AF8
:10047A003F2A392A11081F39031D442A452A392AD5
:10048A00080000300A128A1163220A128A11013006
:10049A000A128A1163220A128A110800F1008312D1
:1004AA00031307177108880087171A30F000F00B3A
:1004BA005C2A00008312031387130800F2008312D8
:1004CA00031307137208880087170D30F100FB30F9
:1004DA00F000F00B6E2AF10B6E2A732A83120313B3
:1004EA0087130800F4007403031D7C2A7D2A862AD8
:1004FA0073080F3980380A128A1163220A128A1184
:10050A00942A02307406031D8B2A8C2A942A7308B3
:10051A000F39C0380A128A1163220A128A11080096
:10052A000A128A1139220A128A11831603139115A3
:10053A000A128A1139220A128A1183120313130822
:10054A00F200F3017208F4007308F5000A128A1126
:10055A0039220A128A1170037104031DB52AB62AB8
:10056A00BA2A831603139112BD2A8316031391160E
:10057A0011167508F1007408F0000800283083127B
:10058A0003139400831603139101831203132008A3
:10059A00A4002108A5002208A6002308A70002300B
:1005AA000310A40DA50DA60DA70DFF3E031DD52A08
:1005BA002708F3002608F2002508F1002408F000B5
:1005CA000030F7007A30F6001230F5000030F400FF
:1005DA000A128A1114250A128A117008FF3E83161C
:1005EA00031393009401871507160800831603174F
:1005FA008801890183160313850186018701880111
:10060A0070308F048F110F14003083120313A3006C
:10061A000130A2008630A100A030A0000A128A117F
:10062A00C3220A128A110A128A114D240A128A1145
:10063A000A128A1146220A128A11F301F30A0130B8
:10064A000A128A1177220A128A110B30F2008030BC
:10065A00F3000A128A116E230A128A110800780816
:10066A0079040319392B3A2B692BFD01FD0A482B12
:10067A0001300310F80DF90DFF3E031D3E2B01302A
:10068A00FC007C08FD07F91F4B2B4C2B3D2B7908EE
:10069A007B02031D522B78087A02031C552B562B1A
:1006AA005C2B7808FA027908031CFB03FB02013071
:1006BA000310F90CF80CFF3E031D5D2B0130FD02FF
:1006CA00031D682B692B4C2B7B08F9007A08F8006C
:1006DA000800F701F801932B77087207F5007308F1
:1006EA00F4000318F40AF71F7B2BF4037408F600CE
:1006FA00760883120313FF00750884000A128A1110
:10070A0003200A128A110A128A1153220A128A1122
:10071A000130F7070318F80A0030F807770872075C
:10072A00F5007308F4000318F40AF71F9D2BF4036D
:10073A007408F600760883120313FF007508840014
:10074A000A128A1103200A128A11003A031DAE2BDB
:10075A00AF2B712B0800F501F6017008710403191B
:10076A00B72BB82BEF2BF701F70AC62B0130031072
:10077A00F00DF10DFF3E031DBC2B0130F40074088F
:10078A00F707F11FC92BCA2BBB2B01300310F50D3C
:10079A00F60DFF3E031DCB2B71087302031DD72BE9
:1007AA0070087202031CDA2BDB2BE22B7008F202B0
:1007BA007108031CF303F302751401300310F10CE2
:1007CA00F00CFF3E031DE32B0130F702031DEE2B55
:1007DA00EF2BCA2B7608F1007508F0000800F60125
:1007EA00F31FF82BF92B002CF209F309F20A03196B
:1007FA00F30AF601F60AF11F032C042C092CF0095E
:10080A00F109F00A0319F10A7008710403190E2C90
:10081A000F2C3E2CF501F50A1D2C01300310F00DAA
:10082A00F10DFF3E031D132C0130F4007408F50787
:10083A00F11F202C212C122C71087302031D272C66
:10084A0070087202031C2A2C2B2C312C7008F2021D
:10085A007108031CF303F30201300310F10CF00CCE
:10086A00FF3E031D322C0130F502031D3D2C3E2CA8
:10087A00212C76080319422C432C482CF209F3093F
:10088A00F20A0319F30A7308F1007208F00008006B
:10089A008312031388013430F400F130F300F30BB0
:1008AA00542CF40B542C592C30300A128A1163221E
:1008BA000A128A110D30F400FB30F300F30B632C9B
:1008CA00F40B632C682C30300A128A1163220A1244
:1008DA008A111D30F4009130F300F30B722CF40BE3
:1008EA00722C30300A128A1163220A128A113830A5
:1008FA000A128A1163220A128A1110300A128A1104
:10090A0063220A128A1101300A128A1163220A1218
:10091A008A1106300A128A1163220A128A111030C9
:10092A000A128A1163220A128A110C300A128A11D7
:10093A0063220A128A110230F5000430F400BA3038
:10094A00F300F30BA62CF40BA62CF50BA62C000037
:10095A00080083120313A9006430F7000030F8007E
:10096A002908A400A5012408F9002508FA000A129A
:10097A008A117A250A128A11770883120313A600AC
:10098A002608B2000A30F7000030F8002908A4004F
:10099A00A5012408F2002508F3006430F0000030B5
:1009AA00F1000A128A11F4230A128A117108FA0054
:1009BA007008F9000A128A117A250A128A11770830
:1009CA0083120313A6002608B1002908A400A50172
:1009DA002408F2002508F3006430F0000030F1002A
:1009EA000A128A11F4230A128A1171088312031354
:1009FA00A8007008A7000A30F0000030F1002808AB
:100A0A00F3002708F2000A128A11F4230A128A1143
:100A1A00700883120313A4002408B00008000030F1
:100A2A00FC000030FB000030FA000030F9007308C7
:100A3A007204710470040319232D242D712DFD01F4
:100A4A00FD0A342D0130F8000310F00DF10DF20DFE
:100A5A00F30DF80B292D0130F8007808FD07F31F74
:100A6A00372D382D272D0130F8000310F90DFA0D16
:100A7A00FB0DFC0DF80B3A2D73087702031D4F2D61
:100A8A0072087602031D4F2D71087502031D4F2D42
:100A9A0070087402031C522D532D622D7008F40243
:100AAA007108031C710FF5027208031C720FF6021B
:100ABA007308031C730FF702791401300310F30C47
:100ACA00F20CF10CF00CFF3E031D632D0130FD0208
:100ADA00031D702D712D382D7C08F3007B08F20060
:100AEA007A08F1007908F000080083120313A101C3
:100AFA00F81F802D812D882DF709F809F70A0319A7
:100B0A00F80AA101A10AFA1F8B2D8C2D952DF9093E
:100B1A00FA09F90A0319FA0A0130FB007B08A1064F
:100B2A00A201A3017708780403199C2D9D2DD42DC9
:100B3A00A001A00AAB2D01300310F70DF80DFF3EFE
:100B4A00031DA12D0130FB007B08A007F81FAE2D65
:100B5A00AF2DA02D01300310A20DA30DFF3E031DE2
:100B6A00B02D78087A02031DBC2D77087902031C80
:100B7A00BF2DC02DC72D7708F9027808031CFA0388
:100B8A00FA02221401300310F80CF70CFF3E031D81
:100B9A00C82D0130A002031DD32DD42DAF2D21085D
:100BAA000319D82DD92DDE2DA209A309A20A0319EA
:100BBA00A30A2308F8002208F70008008312031387
:100BCA00AB002130A3002308A600B42E25302C0642
:100BDA000319F02DF12DFD2D2C08A3002B088400FC
:100BEA002308831380000130A3002308AB07B42E27
:100BFA00A7010130A007FF30200784000A128A11DA
:100C0A000D200A128A11AC00A300A4012408003A9C
:100C1A000319102EB42E2308003A0319C62E643A7B
:100C2A0003191B2E0D3A03191B2EB42E2608840015
:100C3A0083130008A900840A0008AA000230A3004E
:100C4A002308A607AA1F2A2E2B2E342E0330A30010
:100C5A002308A704A909AA09A90A0319AA0AAC011F
:100C6A00AC0A2C08A3002307013E84000A128A1149
:100C7A000D200A128A11A4000A128A110D200A12E2
:100C8A008A11A50025082A02031D4D2E24082902CF
:100C9A000318502E512E522E5C2E0130A300230829
:100CAA00AC0705302C06031D5B2E5C2E362E27085A
:100CBA0003390319612E622E6D2E2D30A3002B08E5
:100CCA0084002308831380000130A3002308AB07A4
:100CDA002C08A3002308A800AB2E0A30F800003025
:100CEA00F9002808A3002307013E84000A128A118A
:100CFA000D200A128A11F0000A128A110D200A1216
:100D0A008A11F1002A08F3002908F2000A128A114E
:100D1A00B0230A128A117108FB007008FA000A123D
:100D2A008A1134230A128A117808303E8312031377
:100D3A00A4002408AC002C08A3002B088400230874
:100D4A00831380000130A3002308AB07FF30A30000
:100D5A002308A807280A031DB32EB42E722E0130C9
:100D6A00A007FF30200784000A128A110D200A12F8
:100D7A008A11A3002308AC002C08031DC52EC62E19
:100D8A00EB2D2B0884008313800108000A128A11B4
:100D9A00FB220A128A110A128A111D220A128A11C8
:100DAA005130F0000030F1000A128A112F220A1283
:100DBA008A110030F000F1000A128A1195220A12F3
:100DCA008A11700883120313AD002D08B4000A12A9
:100DDA008A1126220A128A11033083120313AF00E2
:100DEA000830AE007630AD00AD0BF92EAE0BF92E01
:100DFA00AF0BF92E00008312031334080A128A116A
:100E0A00AE240A128A11F301F30A02300A128A1175
:100E1A0077220A128A111E3083120313AD002D089D
:100E2A00A0003208AE00AF012E08A1002F08A200D0
:100E3A0035300A128A11E3250A128A113530F20076
:100E4A000030F3000A128A116E230A128A111E3028
:100E5A0083120313AD002D08A0003108AE00AF01C4
:100E6A002E08A1002F08A20035300A128A11E325A4
:100E7A000A128A113530F2000030F3000A128A1180
:100E8A006E230A128A11173083120313AD002D083C
:100E9A00A0003008AE00AF012E08A1002F08A20062
:100EAA0035300A128A11E3250A128A113530F20006
:100EBA000030F3000A128A116E230A128A110A12EA
:100ECA008A111D220A128A113130F0000030F10015
:100EDA000A128A112F220A128A110030F000F10038
:100EEA000A128A1195220A128A11700883120313B0
:100EFA00AD002D08B3000A128A1126220A128A119D
:100F0A00033083120313AF000830AE007630AD0011
:100F1A00AD0B8D2FAE0B8D2FAF0B8D2F00008312D3
:100F2A00031333080A128A11AE240A128A111C30DA
:100F3A0083120313AD002D08A0003208AE00AF01E2
:100F4A002E08A1002F08A20035300A128A11E325C3
:100F5A000A128A113530F2000030F3000A128A119F
:100F6A006E230A128A111E3083120313AD002D0854
:100F7A00A0003108AE00AF012E08A1002F08A20080
:100F8A0035300A128A11E3250A128A113530F20025
:100F9A000030F3000A128A116E230A128A111E30D7
:100FAA0083120313AD002D08A0003008AE00AF0174
:100FBA002E08A1002F08A20035300A128A11E32553
:100FCA000A128A113530F2000030F3000A128A112F
:100FDA006E230A128A11D02E0A128A11002883124D
:100FEA000313B001B101B201B301B401B501830128
:060FFA000A128A11CB2E41
:04400E00C420FF3F8C
:00000001FF
