:020000040000FA
:060000000A128A110C280F
:10000800FE00030EFA000A08FB000A128A11862A6B
:100018000A128A110F280A128A1188270A128A11CD
:10002800D3008313203084003A300A128A117A27C9
:100038000A128A11FC01FD0183010A128A1124287F
:100048000A128A11B2230A128A110A128A11B025D9
:100058000A128A110A128A1171270A128A1151305A
:1000680083120313BA000030BB000A128A115E27FC
:100078000A128A11003083120313BA00BB000A1255
:100088008A1138260A128A11831203133A08D000FB
:100098005008B6000A128A1168270A128A1103301A
:1000A80083120313D2000830D1007630D000D00B71
:1000B8005B28D10B5B28D20B5B2800000A128A113F
:1000C80071270A128A11313083120313BA000030E3
:1000D800BB000A128A115E270A128A1100308312A5
:1000E8000313BA00BB000A128A1138260A128A11B1
:1000F800831203133A08D0005008B5000A128A1177
:1001080068270A128A11033083120313D2000830B9
:10011800D1007630D000D00B8F28D10B8F28D20B8E
:100128008F280000831203132308031D9C289D2891
:10013800A928803095002F3083120313D100BF30D7
:10014800D000D00BA528D10BA528831203132303B5
:10015800031DAF28B028BC28BF3095002F3083126C
:100168000313D100BF30D000D00BB828D10BB8286A
:10017800FF300A128A11F1240A128A11831203131A
:100188003908D0005008B1003808D0005008B00035
:100198003708D0005008AF0050300A128A11F124F5
:1001A8000A128A11831203133908D0005008AE00CE
:1001B8003808D0005008AD003708D0005008AC000F
:1001C80064300A128A11F1240A128A118312031365
:1001D8003908D0005008AB003808D0005008AA00F1
:1001E8003708D0005008A9000A128A1144270A12B9
:1001F8008A1183120313BE01BE0A01300A128A1142
:1002080058250A128A1109300A128A116A260A1216
:100218008A1111300A128A116A260A128A110D30BF
:100228000A128A116A260A128A1111300A128A11D0
:100238006A260A128A1101300A128A116A260A12DB
:100248008A1111300A128A116A260A128A11053097
:100258000A128A116A260A128A1183120313BE012E
:10026800BE0A02300A128A1158250A128A1183120C
:10027800031331080A128A11B8260A128A11831246
:10028800031330080A128A11B8260A128A11831237
:1002980003132F080A128A11B8260A128A1111307C
:1002A8000A128A116A260A128A11831203132E0867
:1002B8000A128A11B8260A128A11831203132D080A
:1002C8000A128A11B8260A128A11831203132C08FB
:1002D8000A128A11B8260A128A1111300A128A11D2
:1002E8006A260A128A1132300A128A11F1240A1275
:1002F8008A118312031339080A128A11B8260A12BE
:100308008A118312031338080A128A11B8260A12AE
:100318008A118312031337080A128A11B8260A129F
:100328008A1111300A128A116A260A128A11831256
:10033800031322080319A129A229A92905080A12C9
:100348008A11F1240A128A11AF2928300A128A1157
:10035800F1240A128A118312031339080A128A1126
:10036800B8260A128A118312031338080A128A114E
:10037800B8260A128A118312031337080A128A113F
:10038800B8260A128A11831203130C1ECC29CD2910
:100398007F2A343083120313D100F130D000D00B00
:1003A800D329D10BD3298312031331089900343090
:1003B80083120313D100F130D000D00BE129D10B07
:1003C800E129831203133008990034308312031390
:1003D800D100F130D000D00BEF29D10BEF298312D7
:1003E80003132F089900343083120313D100F1301E
:1003F800D000D00BFD29D10BFD292C30831203131B
:100408009900343083120313D100F130D000D00B9F
:100418000B2AD10B0B2A831203132E0899003430B0
:1004280083120313D100F130D000D00B192AD10B5D
:10043800192A831203132D089900343083120313E9
:10044800D100F130D000D00B272AD10B272A8312F4
:1004580003132C089900343083120313D100F130B0
:10046800D000D00B352AD10B352A2C308312031338
:100478009900343083120313D100F130D000D00B2F
:10048800432AD10B432A831203132B0899003430D3
:1004980083120313D100F130D000D00B512AD10BB5
:1004A800512A831203132A08990034308312031344
:1004B800D100F130D000D00B5F2AD10B5F2A831214
:1004C800031329089900343083120313D100F13043
:1004D800D000D00B6D2AD10B6D2A0D308312031377
:1004E8009900343083120313D100F130D000D00BBF
:1004F8007B2AD10B7B2A831203130C122E280A1293
:100508008A110C280B1D892A8A2A9C2A01308312F9
:100518000313A0020030031CA103A1022008210438
:10052800031D972A982A992AA301F83081000B11F4
:100538000B1C9F2AA02AC92A83120313861CA52AEA
:10054800A62AC82A22080319AA2AAB2AC22A0508F9
:10055800F600F7017608F0007708F100E830F200BD
:100568000330F3000A128A1193260A128A117108BD
:1005780083120313A1007008A000C62A8830A000C7
:100588001330A100A301A30A0B10831203138C1EBE
:10059800CE2ACF2AAB2B0D301A06031DD42AD52A12
:1005A800DF2A24088500FC01A401D301D30AA8018D
:1005B800A701A201A20A0D301A060319E42AE52AA6
:1005C800A42B1A08F6007608FD0030307D06031DBE
:1005D800EE2AEF2AF12AFC01522B31307D06031D49
:1005E800F62AF72AFA2AFC01FC0A522B32307D0639
:1005F800031DFF2A002B052B0230F6007608FC00AD
:10060800522B33307D06031D0A2B0B2B102B033086
:10061800F6007608FC00522B34307D06031D152B9E
:10062800162B1B2B0430F6007608FC00522B3530B5
:100638007D06031D202B212B262B0530F60076087E
:10064800FC00522B36307D06031D2B2B2C2B312B17
:100658000630F6007608FC00522B37307D06031D65
:10066800362B372B3C2B0730F6007608FC00522B34
:1006780038307D06031D412B422B472B0830F600EE
:100688007608FC00522B39307D06031D4C2B4D2B70
:10069800522B0930F6007608FC00522B5303031D39
:1006A800562B572B632B7C08F6007608A4007C0891
:1006B800F6007608A600D301A801A80AA42B2803EF
:1006C800031D672B682B802B0A30F6007608F00094
:1006D80026080A128A112F270A128A117C07F700A6
:1006E800770883120313A4007C08F6007608A50097
:1006F800A801A701A70AA42B2703031D842B852B78
:10070800A42B0A30F6007608F00025080A128A1190
:100718002F270A128A11F7006430F8007808F000D1
:100728008312031326080A128A112F270A128A1124
:1007380077077C07F900790883120313A400A42B18
:1007480073301A06031DA92BAA2BAB2BA2017B0819
:100758008A007A0E8300FE0E7E0E090083160313AC
:100768000F178F160F160F148316031789018801A8
:1007780083160313850103308600803087008801C3
:1007880089018113033095008312031385018701C2
:10079800880189018B170B178B160B11831603130E
:1007A8008C16831203138C128601033083160313ED
:1007B80096000B10FA3092003F308312031397050E
:1007C8001708F0390C3897000F309500CF3097058F
:1007D8008C109214121412158C1CF32BF42BF02B82
:1007E8008C10831603131812181583160317871510
:1007F800CF308316031399009A01831203139817B5
:1008080018131816831603139816811281110115EF
:1008180081140114F8308312031381000030CB00D7
:100828000130CA008630C900A030C8000A128A11F7
:10083800FE250A128A11080083120313C001BB1F88
:10084800262C272C2E2CBA09BB09BA0A0319BB0A75
:10085800C001C00ABD1F312C322C3B2CBC09BD097C
:10086800BC0A0319BD0A0130BE003E08C006C1011A
:10087800C2013A083B040319422C432C7A2CBF01CD
:10088800BF0A512C01300310BA0DBB0DFF3E031DEA
:10089800472C0130BE003E08BF07BB1F542C552C07
:1008A800462C01300310C10DC20DFF3E031D562C0E
:1008B8003B083D02031D622C3A083C02031C652CD0
:1008C800662C6D2C3A08BC023B08031CBD03BD0214
:1008D800411401300310BB0CBA0CFF3E031D6E2CF3
:1008E8000130BF02031D792C7A2C552C40080319BE
:1008F8007E2C7F2C842CC109C209C10A0319C20AA3
:100908004208BB004108BA000800003083120313F4
:10091800C6000030C5000030C4000030C3003D08E8
:100928003C043B043A0403199A2C9B2CE82CC7017D
:10093800C70AAB2C0130C2000310BA0DBB0DBC0DA9
:10094800BD0DC20BA02C0130C2004208C707BD1F55
:10095800AE2CAF2C9E2C0130C2000310C30DC40D69
:10096800C50DC60DC20BB12C3D084102031DC62C96
:100978003C084002031DC62C3B083F02031DC62C41
:100988003A083E02031CC92CCA2CD92C3A08BE02CC
:100998003B08031C3B0FBF023C08031C3C0FC00272
:1009A8003D08031C3D0FC102431401300310BD0C68
:1009B800BC0CBB0CBA0CFF3E031DDA2C0130C7027D
:1009C800031DE72CE82CAF2C4608BD004508BC00E9
:1009D8004408BB004308BA00080083120313C6008A
:1009E8004608C3004308C7006430BA000030BB00A3
:1009F8004708C300C4014308BC004408BD000A12EC
:100A08008A1120240A128A11831203133A08C50096
:100A18004508B9009C30C3004308BA0039080A12D7
:100A28008A1118270A128A11831203134707C40070
:100A38004408C7000A30BA000030BB004708C300AA
:100A4800C4014308BC004408BD000A128A112024CE
:100A58000A128A11831203133A08C5004508B80020
:100A6800F630C3004308BA0038080A128A1118275A
:100A78000A128A11831203134707C4004408C700E7
:100A88004708C3004308B7003908303EC30043088D
:100A9800B9003808303EC3004308B8003708303E74
:100AA800C3004308B700080083120313C1004103C1
:100AB800031D5F2D602D852D3E087F3EBF003F083A
:100AC800C4004408BF0004300310BF0CFF3E031DE0
:100AD800682D3F08C0004008C20044080F39BF0015
:100AE8003F08C30042080A128A11D8260A128A113E
:100AF8008312031343080A128A11D8260A128A118C
:100B0800AF2D02304106031D8A2D8B2DAF2D3E08D7
:100B1800BF3EBF003F08C4004408BF0004300310B4
:100B2800BF0CFF3E031D932D3F08C0004008C200C4
:100B38004408F039BF003F08C30042080A128A116E
:100B4800D8260A128A118312031343080A128A113B
:100B5800D8260A128A11080000300A128A11822740
:100B68000A128A111A3083120313BF00F730BE002D
:100B7800BE0BBC2DBF0BBC2DC12D30300A128A1103
:100B8800D8260A128A11073083120313BF007C305B
:100B9800BE00BE0BCD2DBF0BCD2D000030300A128C
:100BA8008A11D8260A128A11413083120313BE0013
:100BB800BE0BDC2DDF2D30300A128A11D8260A121E
:100BC8008A113C300A128A11D8260A128A11083072
:100BD8000A128A11D8260A128A1101300A128A11B9
:100BE800D8260A128A1106300A128A11D8260A1241
:100BF8008A11080028308312031394008316031304
:100C08009101831203134808CC004908CD004A0813
:100C1800CE004B08CF0002300310CC0DCD0DCE0D09
:100C2800CF0DFF3E031D102E4F08BD004E08BC001F
:100C38004D08BB004C08BA000030C1007A30C00033
:100C48001230BF000030BE000A128A1189240A122D
:100C58008A11831203133A08FF3E83160313930085
:100C680094018715071608000A128A1151270A12DB
:100C78008A118316031391150A128A1151270A1231
:100C88008A11831203131308BC00BD013C08BE007F
:100C98003D08BF000A128A1151270A128A118312CD
:100CA80003133A033B04031D5A2E5B2E5F2E831653
:100CB80003139112622E83160313911611168312D1
:100CC80003133F08BB003E08BA0008008312031351
:100CD800C100BF01C001852E3F08410784000A12E8
:100CE8008A1100270A128A110A128A11B8260A12D2
:100CF8008A11013083120313BF070318C00A00309A
:100D0800C0073F08410784000A128A1100270A1207
:100D18008A11003A031D912E922E702E0800F401BC
:100D2800F501701C982E992E9F2E7208F40703184F
:100D3800F50A7308F50701300310F20DF30DFF3EB5
:100D4800031DA02E01300310F10CF00CFF3E031D13
:100D5800A72E70087104031DB22EB32E952E7508A8
:100D6800F1007408F000080083120313BC003C086B
:100D7800BB003B08BD003D08BB003B08BE00091492
:100D88003E080A128A1182270A128A118312031353
:100D980089140C3083120313BB00BB0BD12E000047
:100DA800831203138910080083120313BD0009106E
:100DB8003D080A128A1182270A128A118312031324
:100DC8008914063083120313BC002F30BB00BB0B01
:100DD800EB2EBC0BEB2EF02E8312031389100800A8
:100E000007308A000408840A820700344F345034C3
:100E1000313400344F3450343234003453343134AC
:100E20003A340034533432343A3400342034003409
:100E300083120313BD00BC013D1C1F2F202F242F44
:100E40003A08BB003B08BC070310BA0D0310BD0CE9
:100E50003D08031D2C2F2D2F1C2F3C080800F300EC
:100E6000F201731C342F352F392F7008F1007108EF
:100E7000F2070310F00D0310F30C7308031D412F4C
:100E8000422F312F7208080000300A128A11D8262A
:100E90000A128A1101300A128A11D8260A128A11FE
:100EA0000800831603131419562F572F512F1108BA
:100EB0001F39031D5C2F5D2F512F08000A128A1164
:100EC00051270A128A11831203133A08930008006B
:100ED0000A128A1151270A128A1183160313111557
:100EE00008000A128A1151270A128A118316031365
:100EF0001114080064008001840A040603190034F8
:100F000004067B2F83120313BA003A0888000800F6
:020F10000134AA
:04400E00D420FF3F7C
:00000001FF
