:020000040000FA
:100000000A128A11EB2F0A168A11D7260A128A11B0
:100010008316031311150800FA01F71F1028112881
:100020001E28F409F509F609F709F40A0319F50A77
:100030000319F60A0319F70AFA01FA0AF31F21282D
:1000400022282D28F009F109F209F309F00A031911
:10005000F10A0319F20A0319F30A7308720471040E
:1000600070040319342835287828F901F90A45283D
:100070000130F8000310F00DF10DF20DF30DF80B47
:100080003A280130F8007808F907F31F4828492872
:10009000382873087702031D572872087602031D5B
:1000A000572871087502031D572870087402031C35
:1000B0005A285B2869287008F4027108031C710F24
:1000C000F5027208031C720FF6027308031C730F0B
:1000D000F70201300310F30CF20CF10CF00CFF3EB0
:1000E000031D6A280130F902031D77287828492862
:1000F0007A0803197C287D288828F409F509F6096F
:10010000F709F40A0319F50A0319F60A0319F70A9D
:100110007708F3007608F2007508F1007408F00023
:10012000080083120313CA000A128A1538240A121F
:100130008A1183160313280883120313AE00831653
:100140000313290883120313AF00B001B10101307A
:100150000310AE0DAF0DB00DB10DFF3E031DA8286D
:100160000030F3000030F2000030F1000830F00001
:100170006108F7006008F6005F08F5005E08F4000B
:100180000A128A159B230A128A117008831203131C
:10019000B2007108B3007208B4007308B5002E08ED
:1001A000B2022F08031C2F0FD628D728B30230081D
:1001B000031C300FDC28DD28B4023108031C310F8A
:1001C000E228E328B5023508A9003408A80033085E
:1001D000A7003208A600831603132A08831203130C
:1001E000AA00831603132B0883120313AB000030FD
:1001F000AB1BFF30AC00AD000A128A158D210A122C
:100200008A11831203132908CE002808CD0027087D
:10021000CC002608CB000030F3000030F20008309C
:10022000F1000030F0004E08F7004D08F6004C08D1
:10023000F5004B08F4000A128A159B230A128A1152
:10024000730883120313C1007208C0007108BF0055
:100250007008BE0083160313280883120313AE0030
:1002600083160313290883120313AF00B001B101F1
:100270000030F3000030F2000030F1001030F000E8
:100280006108F7006008F6005F08F5005E08F400FA
:100290000A128A159B230A128A117008831203130B
:1002A000B2007108B3007208B4007308B5002E08DC
:1002B000B2022F08031C2F0F5E295F29B3023008FA
:1002C000031C300F64296529B4023108031C310F67
:1002D0006A296B29B5023508A9003408A80033083B
:1002E000A7003208A60083160313280883120313FD
:1002F000B60083160313290883120313B700B8014D
:10030000B9010030F3000030F2000030F10010308D
:10031000F0006108F7006008F6005F08F5005E086D
:10032000F4000A128A159B230A128A11700883129C
:100330000313BA007108BB007208BC007308BD004B
:100340003608BA023708031C370FA729A829BB02B1
:100350003808031C380FAD29AE29BC023908031C2C
:10036000390FB329B429BD023D08AD003C08AC00EB
:100370003B08AB003A08AA000A128A158D210A121E
:100380008A11831203132908CE002808CD002708FC
:10039000CC002608CB000030F3000030F200103013
:1003A000F1000030F0004E08F7004D08F6004C0850
:1003B000F5004B08F4000A128A159B230A128A11D1
:1003C000730883120313A9007208A8007108A7001C
:1003D0007008A600831603132C0883120313AA00C7
:1003E000831603132D0883120313AB000030AB1BDD
:1003F000FF30AC00AD000A128A158D210A128A1155
:10040000831203132908C9002808C8002708C70059
:100410002608C6000030F3000030F2004030F10042
:100420000030F0004908F7004808F6004708F500DA
:100430004608F4000A128A159B230A128A117308CF
:1004400083120313C5007208C4007108C30070084A
:10045000C2003E084207AE000030031801303F07DB
:10046000B0010318B00A4307AF000318B00A4008F0
:100470003007B1010318B10A4407B0000318B10AEC
:10048000410831074507B100310883160313A30063
:1004900083120313300883160313A200831203137D
:1004A0002F0883160313A100831203132E0883164B
:1004B0000313A0000030F3000030F2000130F1001F
:1004C0000030F000803083120313AE000030AF0024
:1004D0000030B0000030B1008316031323088312EC
:1004E0000313A90083160313220883120313A80021
:1004F00083160313210883120313A7008316031323
:10050000200883120313A6000030AD000030AC00B9
:100510000030AB000530AA000A128A158D210A129C
:100520008A11831203132608AE0727080318270F22
:100530009A2A9B2AAF0728080318280FA02AA12A65
:10054000B00729080318290AB1073108F700300855
:10055000F6002F08F5002E08F4000A128A159B23D6
:100560000A128A11831203134A0884007008831345
:100570008000840A71088000840A72088000840A5E
:1005800073088000080083120313CA000030AE0015
:100590000630AF00FF30B000FF30B1000030F30094
:1005A0000030F2000030F1000230F0008316031337
:1005B0002308F7002208F6002108F5002008F400BF
:1005C0000A128A159B230A128A11700883120313D8
:1005D000AE0771080318710FEE2AEF2AAF077208F1
:1005E0000318720FF42AF52AB00773080318730A68
:1005F000B1073108DA003008D9002F08D8002E08DA
:10060000D7000030F3000030F2000030F100043079
:10061000F0005A08F7005908F6005808F500570886
:10062000F4000A128A159B230A128A117308831296
:100630000313A9007208A8007108A7007008A6009B
:100640000030F3000030F2000030F1000430F00020
:100650005A08F7005908F6005808F5005708F40042
:100660000A128A159B230A128A1173088312031334
:10067000AD007208AC007108AB007008AA000A1245
:100680008A158D210A128A11831203132908CE00BC
:100690002808CD002708CC002608CB000030F30046
:1006A0000030F2000830F1000030F0004E08F70092
:1006B0004D08F6004C08F5004B08F4000A128A15A4
:1006C0009B230A128A11730883120313A90072086C
:1006D000A8007108A7007008A60083160313380845
:1006E00083120313AA00831603133908831203131A
:1006F000AB000030AB1BFF30AC00AD000A128A1516
:100700008D210A128A11831203132908D2002808A6
:10071000D1002708D0002608CF004F08AE005008AF
:10072000AF005108B0005208B10083160313360819
:1007300083120313A60083160313370883120313CF
:10074000A7000030A71BFF30A800A9005A08AD0081
:100750005908AC005808AB005708AA000A128A15BD
:100760008D210A128A11831203132608B20027086A
:10077000B3002808B4002908B50001300310B20DF9
:10078000B30DB40DB50DFF3E031DBE2B3208AE07F1
:1007900033080318330FCD2BCE2BAF0734080318C3
:1007A000340FD32BD42BB00735080318350AB10703
:1007B0003108D2003008D1002F08D0002E08CF0019
:1007C00083160313340883120313AE008316031336
:1007D000350883120313AF00B001B10110300310CC
:1007E000AE0DAF0DB00DB10DFF3E031DEF2B003070
:1007F000F3000030F2000030F1000430F000520845
:10080000F7005108F6005008F5004F08F4000A12EE
:100810008A159B230A128A11700883120313AE07EC
:1008200071080318710F152C162CAF0772080318E6
:10083000720F1B2C1C2CB00773080318730AB10726
:100840003108D2003008D1002F08D0002E08CF0088
:100850000030F3000030F2000030F1000430F0000E
:100860005A08F7005908F6005808F5005708F40030
:100870000A128A159B230A128A1173088312031322
:10088000A9007208A8007108A7007008A60000302F
:10089000F3000030F2000030F1000430F0005A089C
:1008A000F7005908F6005808F5005708F4000A1236
:1008B0008A159B230A128A11730883120313AD0051
:1008C0007208AC007108AB007008AA000A128A1501
:1008D0008D210A128A11831203132908CE002808D9
:1008E000CD002708CC002608CB008316031332085E
:1008F00083120313A6008316031333088312031312
:10090000A7000030A71BFF30A800A9000030F300AB
:100910000030F2002030F1000030F0004E08F70007
:100920004D08F6004C08F5004B08F4000A128A1531
:100930009B230A128A11730883120313AD007208F5
:10094000AC007108AB007008AA000A128A158D214C
:100950000A128A11831203132908C1002808C00053
:100960002708BF002608BE000030F3000030F20068
:100970000030F1000230F0008316031330088312B8
:100980000313A60083160313310883120313A70071
:100990000030A71BFF30A800A9005A08AD00590875
:1009A000AC005808AB005708AA000A128A158D211E
:1009B0000A128A11831203132908F7002808F60087
:1009C0002708F5002608F4000A128A159B230A124C
:1009D0008A11700883120313AE007108AF00720809
:1009E000B0007308B1000030F3000030F2000030B6
:1009F000F1000830F0004108F7004008F6003F0819
:100A0000F5003E08F4000A128A159B230A128A1187
:100A1000700883120313AE0771080318710F112DAC
:100A2000122DAF0772080318720F172D182DB0077B
:100A300073080318730AB1073108C5003008C400F1
:100A40002F08C3002E08C2000030F3000430F2006B
:100A50000030F1000030F0004508F7004408F600CF
:100A60004308F5004208F4000A128A159B230A1273
:100A70008A11730883120313DA007208D90071080F
:100A8000D8007008D7000030F3000030F20080304A
:100A9000F1000030F0000030AE008030AF000030D8
:100AA000B0000030B1005708AE0758080318580FBF
:100AB0005A2D5B2DAF0759080318590F602D612D72
:100AC000B0075A0803185A0AB1073108A9003008BC
:100AD000A8002F08A7002E08A600831603132E08CF
:100AE00083120313AA00831603132F088312031320
:100AF000AB00AC01AD010A128A158D210A128A11D0
:100B0000831203132908F7002808F6002708F500C8
:100B10002608F4000A128A159B230A128A11730808
:100B200083120313DA007208D9007108D800700824
:100B3000D7005A08590458045704031DA02DA12DAD
:100B4000A22DEA2F0030AE000030AF001030B00010
:100B50000030B1000030F3000030F2001030F1003E
:100B60000030F0005208F7005108F6005008F50078
:100B70004F08F4000A128A159B230A128A11831661
:100B80000313240983120313B200831603132509E8
:100B900083120313B300831603132609831203136E
:100BA000B40083160313270983120313B500B20A96
:100BB0000319B30A0319B40A0319B50A7008B2027B
:100BC0007108031C710FE52DE62DB3027208031C9A
:100BD000720FEB2DEC2DB4027308031C730FF12D73
:100BE000F22DB5023208AE0733080318330FF92D82
:100BF000FA2DAF0734080318340FFF2D002EB0076D
:100C000035080318350AB1073108A9003008A800D3
:100C10002F08A7002E08A6000030AD000030AC0061
:100C20000C30AB003530AA000A128A158D210A1249
:100C30008A11831203132908D6002808D500270833
:100C4000D4002608D30080305602031D332E003016
:100C50005502031D332E00305402031D332E003085
:100C60005302031D332E0318362E372E5A2E8312AD
:100C700003135A08F3005908F2005808F100570806
:100C8000F0000310530DF400540DF500550DF6005F
:100C9000560DF7000A128A15CE220A128A1173081D
:100CA00083120313D6007208D5007108D4007008AF
:100CB000D3007C2E831203135A08F3005908F20064
:100CC0005808F1005708F0005608F7005508F600DC
:100CD0005408F5005308F4000A128A15CE220A12AD
:100CE0008A110310700D83120313D300710DD40009
:100CF000720DD500730DD6005308AE005408AF0036
:100D00005508B0005608B10003300310B10CB00C08
:100D1000AF0CAE0CFF3E031D852E3108AD00300830
:100D2000AC002F08AB002E08AA005308B2005408EC
:100D3000B3005508B4005608B50003300310B50CD5
:100D4000B40CB30CB20CFF3E031D9E2E3508A90057
:100D50003408A8003308A7003208A6000A128A1532
:100D60008D210A128A11831203132608B600270860
:100D7000B7002808B8002908B9000D300310B90CD5
:100D8000B80CB70CB60CFF3E031DBE2E3908C900C7
:100D90003808C8003708C7003608C6000030F3001E
:100DA0000030F2001030F1000030F0008316031321
:100DB0003E0883120313A600831603133F08831211
:100DC0000313A7000030A71BFF30A800A9004908A3
:100DD000AD004808AC004708AB004608AA000A125C
:100DE0008A158D210A128A11831203132908F7002C
:100DF0002808F6002708F5002608F4000A128A15CC
:100E00009B230A128A11730883120313DA007208F3
:100E1000D9007108D8007008D7000030F300003006
:100E2000F2002030F1000030F0005308AE0054080A
:100E3000AF005508B0005608B10002300310B10CE5
:100E4000B00CAF0CAE0CFF3E031D1E2F3108A900E5
:100E50003008A8002F08A7002E08A6008316031349
:100E60003C0883120313AA00831603133D08831260
:100E70000313AB000030AB1BFF30AC00AD000A1217
:100E80008A158D210A128A11831203132908F7008B
:100E90002808F6002708F5002608F4000A128A152B
:100EA0009B230A128A11730883120313D20072085B
:100EB000D1007108D0007008CF000030F30000307E
:100EC000F2000030F1001030F0004F08AE00500882
:100ED000AF005108B0005208B1005708B2005808DE
:100EE000B3005908B4005A08B500831603133A0832
:100EF00083120313B600831603133B0883120313F4
:100F0000B7000030B71BFF30B800B9003608B20791
:100F100037080318370F8D2F8E2FB30738080318A3
:100F2000380F932F942FB40739080318390AB507DF
:100F30003208AE0733080318330F9F2FA02FAF07D7
:100F400034080318340FA52FA62FB007350803184F
:100F5000350AB1073108F7003008F6002F08F50010
:100F60002E08F4000A128A159B230A128A117008AF
:100F7000831203135307BA000030031801307107BE
:100F8000BC010318BC0A5407BB000318BC0A720852
:100F90003C07BD010318BD0A5507BC000318BD0A74
:100FA00073083D075607BD003D08D6003C08D50034
:100FB0003B08D4003A08D3004A088400530883133E
:100FC0008000840A54088000840A55088000840A3E
:100FD00056088000080083135E30840070300A16C3
:100FE0008A11BC260A128A11A0308400C0300A1669
:100FF0008A11BC260A128A1183010A128A15BD2E93
:10100000FF1B0A2883137F1883170008840A03191B
:10101000FF0A080008308A000408840A82070034A6
:10102000013400340A34003464340034E8340334C6
:101030001034273443346F346E346E346534633483
:10104000743469346F346E342034653472347234DD
:101050006F34723421340034543465346D34703458
:101060003A342034253464342E3425346434C23484
:10107000B034433420340034543465346D34703427
:101080003A342D34253464342E3425346434C23457
:10109000B034433420340034503472346534733403
:1010A0003A342034253464342E342534643468349E
:1010B0005034613400346D346534643469346334DD
:0C10C00069346F346E343A34203400344C
:1010DA00F11F702871287D287009F2007109F30048
:1010EA00F20A0319F30A7208F0007308F1007D2866
:1010FA000800F8000A168A11C4260A128A15EE3068
:10110A00F0000030F1000A168A11CD260A128A155B
:10111A007808F600F7017608F0007708F1000A1659
:10112A008A11CD260A128A150A168A11C4260A12AB
:10113A008A15EF30F0000030F1000A168A11CD2628
:10114A000A128A150030F000F1000A168A11602787
:10115A000A128A157008F6007608F9000A128A112E
:10116A0003200A128A1579080800F501F6017008A9
:10117A0071040319C128C228F928F701F70AD028EF
:10118A0001300310F00DF10DFF3E031DC62801309A
:10119A00F4007408F707F11FD328D428C5280130B2
:1011AA000310F50DF60DFF3E031DD52871087302D5
:1011BA00031DE12870087202031CE428E528EC28C4
:1011CA007008F2027108031CF303F302751401306C
:1011DA000310F10CF00CFF3E031DED280130F7025D
:1011EA00031DF828F928D4287608F1007508F000BC
:1011FA000800F400831203139817831603131812B6
:10120A0018138312031318131C2919308316031396
:10121A00990018158316031787112C290C30831689
:10122A000313990018118316031787112C297408C0
:10123A00F200F3017308003A031924292C297208D1
:10124A00043A03190A290C3A031913292C297003A1
:10125A00031D302931293529831603139816382995
:10126A008316031398127103031D3C293D29412952
:10127A008312031318164429831203131812080041
:10128A0083120313A0007808FA0002300310FA0D43
:10129A00FF3E031D4B297908FB0004300310FB0DA8
:1012AA00FF3E031D532903107B0D7A04FC39FC0011
:1012BA007C08A2007708FA0002300310FA0DFF3EFC
:1012CA00031D62297608FB0004300310FB0DFF3E64
:1012DA00031D6A2903107B0D7A042004FC007C0894
:1012EA00A1002208FA007A08F200F5300A168A11DB
:1012FA0033270A128A15831203132108FA007A087F
:10130A00F200F4300A168A1133270A128A150800E5
:10131A000030FD000030FC000030FB000030FA0015
:10132A0083120313261C9A299B29B2292A08FA0731
:10133A002B0803110318013E0319A429FB072C08E3
:10134A0003110318013E0319AB29FC072D080311E9
:10135A000318013E0319B229FD070130F9000310F1
:10136A00AA0DAB0DAC0DAD0DF90BB429013003106C
:10137A00A90CA80CA70CA60CFF3E031DBC29290822
:10138A00280427042604031DCB29CC2995297D0886
:10139A00A9007C08A8007B08A7007A08A600080014
:1013AA00FA000A168A11C4260A128A15EE30F000CB
:1013BA000030F1000A168A11CD260A128A157A0817
:1013CA00F800F9017808F0007908F1000A168A1184
:1013DA00CD260A128A150A168A11C4260A128A15F5
:1013EA00EF30F0000030F1000A168A11CD260A12F9
:1013FA008A150130F0000030F1000A168A116027C0
:10140A000A128A157008F8007808FB000030F0000C
:10141A00F1000A168A1160270A128A157008F80064
:10142A007808FC000A128A1103200A128A157C081D
:10143A00F7007B08F6000800730872047104700450
:10144A000319282A292A6C2AF901F90A392A0130AA
:10145A00F8000310F00DF10DF20DF30DF80B2E2A22
:10146A000130F8007808F907F31F3C2A3D2A2C2A94
:10147A0073087702031D4B2A72087602031D4B2A52
:10148A0071087502031D4B2A70087402031C4E2A48
:10149A004F2A5D2A7008F4027108031C710FF502C5
:1014AA007208031C720FF6027308031C730FF7020B
:1014BA0001300310F30CF20CF10CF00CFF3E031D8B
:1014CA005E2A0130F902031D6B2A6C2A3D2A77082D
:1014DA00F3007608F2007508F1007408F0000800BD
:1014EA00FA01F71F792A7A2A812AF609F709F60AF0
:1014FA000319F70AFA01FA0AF51F842A852A8A2AA1
:10150A00F409F509F40A0319F50A740875040319AC
:10151A008F2A902ABF2AF901F90A9E2A013003105C
:10152A00F40DF50DFF3E031D942A0130F8007808EA
:10153A00F907F51FA12AA22A932A75087702031D23
:10154A00A82A74087602031CAB2AAC2AB22A7408A9
:10155A00F6027508031CF703F70201300310F50CB5
:10156A00F40CFF3E031DB32A0130F902031DBE2A03
:10157A00BF2AA22A7A080319C32AC42AC92AF60941
:10158A00F709F60A0319F70A7708F5007608F4004E
:10159A0008000030FC000030FB000030FA00003088
:1015AA00F90073087204710470040319DD2ADE2A33
:1015BA002B2BFD01FD0AEE2A0130F8000310F00D75
:1015CA00F10DF20DF30DF80BE32A0130F80078085B
:1015DA00FD07F31FF12AF22AE12A0130F80003106D
:1015EA00F90DFA0DFB0DFC0DF80BF42A73087702BE
:1015FA00031D092B72087602031D092B7108750257
:10160A00031D092B70087402031C0C2B0D2B1C2BB9
:10161A007008F4027108031C710FF5027208031CAA
:10162A00720FF6027308031C730FF7027914013064
:10163A000310F30CF20CF10CF00CFF3E031D1D2BF2
:10164A000130FD02031D2A2B2B2BF22A7C08F30002
:10165A007B08F2007A08F1007908F0000800FA0124
:10166A00F51F382B392B402BF409F509F40A031915
:10167A00F50AFA01FA0AF71F432B442B4D2BF609F8
:10168A00F709F60A0319F70A0130F8007808FA068A
:10169A00FB01FC01740875040319542B552B8C2B80
:1016AA00F901F90A632B01300310F40DF50DFF3E21
:1016BA00031D592B0130F8007808F907F51F662B2E
:1016CA00672B582B01300310FB0DFC0DFF3E031D49
:1016DA00682B75087702031D742B74087602031CA5
:1016EA00772B782B7F2B7408F6027508031CF703F7
:1016FA00F7027B1401300310F50CF40CFF3E031DB6
:10170A00802B0130F902031D8B2B8C2B672B7A0857
:10171A000319902B912B962BFB09FC09FB0A031941
:10172A00FC0A7C08F5007B08F40008008312031306
:10173A00A101F31FA12BA22BAF2BF009F109F2098A
:10174A00F309F00A0319F10A0319F20A0319F30A51
:10175A00A101A10AF71FB22BB32BC22BF409F50979
:10176A00F609F709F40A0319F50A0319F60A03191F
:10177A00F70A0130F8007808A1060030A500003009
:10178A00A4000030A3000030A200730872047104A0
:10179A0070040319D12BD22B1F2CA001A00AE22B13
:1017AA000130F8000310F00DF10DF20DF30DF80BF6
:1017BA00D72B0130F8007808A007F31FE52BE62B9A
:1017CA00D52B0130F8000310A20DA30DA40DA50D11
:1017DA00F80BE82B73087702031DFD2B72087602BB
:1017EA00031DFD2B71087502031DFD2B7008740281
:1017FA00031C002C012C102C7008F4027108031C25
:10180A00710FF5027208031C720FF6027308031CAB
:10181A00730FF702221401300310F30CF20CF10CCF
:10182A00F00CFF3E031D112C0130A002031D1E2CDB
:10183A001F2CE62B21080319232C242C2F2CA20958
:10184A00A309A409A509A20A0319A30A0319A40A48
:10185A000319A50A2508F3002408F2002308F10059
:10186A002208F0000800FD010A168A11C4260A128D
:10187A008A15EE30F0000030F1000A168A11CD26E2
:10188A000A128A15F730F0000030F1000A168A11A0
:10189A00CD260A128A150A168A11C4260A128A1530
:1018AA00EF30F0000030F1000A168A11CD260A1234
:1018BA008A150130F0000030F1000A168A116027FB
:1018CA000A128A157008F6007608FC000130F0004A
:1018DA000030F1000A168A1160270A128A15700868
:1018EA00F6007608FB000130F0000030F1000A161D
:1018FA008A1160270A128A157008F6007608FA001B
:10190A007A08F6007B08F7007C08F8007D08F900E1
:10191A0004300310F90CF80CF70CF60CFF3E031D0B
:10192A008E2CFF30760583160313A400FF3077054B
:10193A00A5000F307805A60000307905A700013010
:10194A00F0000030F1000A168A1160270A128A157F
:10195A007008F6007608FC000130F0000030F10053
:10196A000A168A1160270A128A157008F600760884
:10197A00FB000030F000F1000A168A1160270A12F3
:10198A008A157008F6007608FA000A128A110320EE
:10199A000A128A157A08F6007B08F7007C08F80014
:1019AA007D08F90004300310F90CF80CF70CF60C5A
:1019BA00FF3E031DD82CFF30760583120313DE0089
:1019CA00FF307705DF000F307805E0000030790539
:1019DA00E1000800FD00D0300A128A157E200A12A2
:1019EA008A15583A0319FA2CFB2C002D831203137B
:1019FA00A301A401D42DB63083120313A70027082C
:101A0A00F200E0300A168A1133270A128A150230C8
:101A1A0083120313A9000430A800B930A700A70B4A
:101A2A00142DA80B142DA90B142D1B2DF3300A12FB
:101A3A008A157E200A128A150139031D252D262DA5
:101A4A000C2D88300A128A15D5210A128A157708B0
:101A5A0083160313A9007608A8008A300A128A1589
:101A6A00D5210A128A15770883160313AB00760864
:101A7A00AA008C300A128A15D5210A128A1577080B
:101A8A0083160313AD007608AC008E300A128A154D
:101A9A00D5210A128A15770883160313AF00760830
:101AAA00AE0090300A128A15D5210A128A157708D3
:101ABA0083160313B1007608B00092300A128A1511
:101ACA00D5210A128A15770883160313B3007608FC
:101ADA00B20094300A128A15D5210A128A1577089B
:101AEA0083160313B5007608B40096300A128A15D5
:101AFA00D5210A128A15770883160313B7007608C8
:101B0A00B60098300A128A15D5210A128A15770862
:101B1A0083160313B9007608B8009A300A128A1598
:101B2A00D5210A128A15770883160313BB00760893
:101B3A00BA009C300A128A15D5210A128A1577082A
:101B4A0083160313BD007608BC009E300A128A155C
:101B5A00D5210A128A15770883160313BF0076085F
:101B6A00BE00831203132308A7002708F6002408DF
:101B7A00A8002808F7002508A9002908F80026085F
:101B8A00AA002A08F9007D080A128A1545210A12B4
:101B9A008A15013083120313A3000030A400080041
:101BAA0083120313B7002730AF002F08B200A62E06
:101BBA00253038060319E22DE32DEF2D3808AF0042
:101BCA00370884002F08831380000130AF002F08E4
:101BDA00B707A62EB3010130A607FF3026078400F7
:101BEA000A128A150A200A128A15B800AF00B00133
:101BFA003008003A0319022EA62E2F08003A0319BC
:101C0A00B82E643A03190D2E0D3A03190D2EA62E7D
:101C1A003208840083130008B500840A0008B6005D
:101C2A000230AF002F08B207B61F1C2E1D2E262E1B
:101C3A000330AF002F08B304B509B609B50A031972
:101C4A00B60AB801B80A3808AF002F07013E840067
:101C5A000A128A150A200A128A15B0000A128A156F
:101C6A000A200A128A15B10031083602031D3F2ED6
:101C7A00300835020318422E432E442E4E2E0130D0
:101C8A00AF002F08B80705303806031D4D2E4E2E1B
:101C9A00282E330803390319532E542E5F2E2D3064
:101CAA00AF00370884002F08831380000130AF008B
:101CBA002F08B7073808AF002F08B4009D2E0A3046
:101CCA00F8000030F9003408AF002F07013E840005
:101CDA000A128A150A200A128A15F0000A128A15AF
:101CEA000A200A128A15F1003608F3003508F200B4
:101CFA000A128A15BA200A128A157108FB0070089E
:101D0A00FA000A168A11C6270A128A157808303E7E
:101D1A0083120313B0003008B8003808AF00370840
:101D2A0084002F08831380000130AF002F08B70703
:101D3A00FF30AF002F08B407340A031DA52EA62EC4
:101D4A00642E0130A607FF30260784000A128A157E
:101D5A000A200A128A15AF002F08B8003808031D96
:101D6A00B72EB82EDD2D37088400831380010800B2
:101D7A000A168A11E4260A128A154C30F0008030BD
:101D8A00F1000A168A110B270A128A158312031305
:101D9A00A301A30AA401A40AA501A60103300A12F9
:101DAA008A15EF240A128A158312031323082404BE
:101DBA00031DE02EE12EEB2E0B30F0008030F100F7
:101DCA000A168A110B270A128A15EA2E6B300A1292
:101DDA008A1191200A128A1567300A128A11C322BF
:101DEA000A128A1583120313EE1FFC2EFD2E492FA9
:101DFA002D30DB005B08A6006430F4000030F500EB
:101E0A006C08F1006B08F0000A128A156D200A129C
:101E1A008A157108F7007008F6000A128A15342329
:101E2A000A128A15750883120313A8007408A700FA
:101E3A006430F4000030F5006C08F1006B08F00023
:101E4A000A128A156D200A128A157108F70070089D
:101E5A00F6000A128A1575220A128A157508831263
:101E6A000313AA007408A9006F300A128A15D5252F
:101E7A000A128A156F30F0000030F1000A168A1132
:101E8A000B270A128A15ED2F1D30DB005B08A6000E
:101E9A000030F3000030F2000030F1006430F0004E
:101EAA006E08F7006D08F6006C08F5006B08F40080
:101EBA000A128A159B230A128A15730883120313BE
:101ECA00AA007208A9007108A8007008A7000030CB
:101EDA00F3000030F2000030F1006430F0006E08C8
:101EEA00F7006D08F6006C08F5006B08F4000A129A
:101EFA008A110C200A128A15730883120313AE0082
:101F0A007208AD007108AC007008AB006F300A129D
:101F1A008A15D5250A128A156F30F0000030F100B3
:101F2A000A168A110B270A128A153D3083120313E7
:101F3A00DB005B08A6000030F3000030F20000303E
:101F4A00F1006430F0006A08F7006908F6006808D2
:101F5A00F5006708F4000A128A15CE220A128A15B9
:101F6A00730883120313AA007208A9007108A80053
:101F7A007008A7000030F3000030F2000030F100D2
:101F8A006430F0006A08F7006908F6006808F5008E
:101F9A006708F4000A128A1521220A128A157308A0
:101FAA0083120313AE007208AD007108AC0070080A
:101FBA00AB006F300A128A15D5250A128A156F30BE
:101FCA00F0000030F1000A168A110B270A128A154E
:101FDA00153083120313DD004B30DC00BD30DB000B
:101FEA00DB0BF52FDC0BF52FDD0BF52FFC2FEB2E82
:061FFA000A128A11002802
:102D780064008001840A0406031900340406BD2E89
:102D88000A168A11D7260A168A11831603131114F4
:102D980008000A168A11D7260A168A1170088312A3
:102DA800031393000800831603131419DC2EDD2E79
:102DB800D72E11081F39031DE22EE32ED72E080047
:102DC8008316031788018901831603138501860179
:102DD8008701880170308F048F110F14F001F00AF9
:102DE800F10108300A128A15FE200A168A110030ED
:102DF80083120313A3000130A2008630A100A03083
:102E0800A0000A168A118E270A168A110800222F96
:102E18007108FF00700884000A128A1500200A163B
:102E28008A11990083160313981C1B2F1C2F162F29
:102E38000130F0070318F10A0030F1077108831216
:102E48000313FF00700884000A128A1500200A166E
:102E58008A11003A031D312F322F0C2F0800F5007C
:102E68000A168A11C4260A168A11EE30F0000030BC
:102E7800F1000A168A11CD260A168A117508F30080
:102E8800F4017308F0007408F1000A168A11CD26BF
:102E98000A168A117208F300F4017308F000740826
:102EA800F1000A168A11CD260A168A110A128A1109
:102EB80003200A168A1108000A168A11D7260A164C
:102EC8008A118316031391150A168A11D7260A1632
:102ED8008A11831203131308F200F3017208F40035
:102EE8007308F5000A168A11D7260A168A11700384
:102EF8007104031D802F812F852F831603139112D0
:102F0800882F83160313911611167508F10074089B
:102F1800F00008002830831203139400831603136B
:102F28009101831203132008A4002108A500220898
:102F3800A6002308A70002300310A40DA50DA60DB6
:102F4800A70DFF3E031DA02F2708F3002608F20057
:102F58002508F1002408F0000030F7007A30F60068
:102F68001230F5000030F4000A128A15CE220A1633
:102F78008A117008FF3E8316031393009401871586
:102F880007160800780879040319CB2FCC2FFB2FDC
:102F9800FD01FD0ADA2F01300310F80DF90DFF3E8F
:102FA800031DD02F0130FC007C08FD07F91FDD2F21
:102FB800DE2FCF2F79087B02031DE42F78087A02D1
:102FC800031CE72FE82FEE2F7808FA027908031C74
:102FD800FB03FB0201300310F90CF80CFF3E031D44
:102FE800EF2F0130FD02031DFA2FFB2FDE2F7B0888
:082FF800F9007A08F800080056
:04400E00C420FF3F8C
:00000001FF
