:020000040000FA
:060000000A128A110C280F
:10000800FE00030EF8000A08F9000A128A111A28DD
:100018000A128A110F28F001F101F201F301F4012B
:10002800F501F60183010A128A11F22883120313DB
:100038008C1D1F28202878281412141B24282528F2
:100048002928941F2828292830281308F70077081A
:10005800F60014139413141683160313941A3528F0
:1000680036285428141939283A2854288312031397
:100078001308F7007708F6008C111416831603137B
:10008800141C472848284228831203131308F70032
:100098007708F400A630F700F70B50280000752801
:1000A800941A572858287528141D5B285C28752829
:1000B800831203131308F7007708F6008316031357
:1000C800141073088312031393001416A630F70054
:1000D800F70B6C280000831603131418742875286E
:1000E8006F28831203138C110C1F7B287C288A2805
:1000F8001F0CF700770C0F39003A031D8428852858
:1001080089281E08F7007708F2000C130B1C8D28AD
:100118008E289B280618912892289528F101F10A23
:100128009A28061C982899289A28F1010B10790812
:100138008A00780E8300FE0E7E0E090001308316B9
:1001480003178800890103308316031385000130E3
:1001580086008701880170308F040F148F110A12EE
:100168008A1155210A128A11F101F10A8312031327
:100178008518BF28C028D5280830A0000030A10065
:100188000A128A1129210A128A110B1783160313DE
:100198000C178B1750300A128A1175210A128A110E
:1001A800F128851CD828D928F1288B150130831609
:1001B800031396008113011701309500073081045D
:1001C800811281110B1564308312031381003030C2
:1001D8000A128A1175210A128A1108000A128A1154
:1001E800A2200A128A11831203138518FC28FD28FD
:1001F80017290A128A118F210A128A117408031DFD
:10020800062907290E298030831203139500061545
:1002180086111229BF308312031395007208A200B9
:100228002208F300FD28851C1A291B292629740891
:10023800A2000310220C013E95007108A2002208BA
:10024800F3001B290A128A110C28831203131F14A6
:10025800C3309F05831603139F131F129F12831227
:1002680003139F1044293F309F0554291F083F3925
:1002780040389F0054291F083F3980389F0054296F
:100288002108003A0319492954292008013A031979
:100298003729053A03193A290C3A03193F295429F1
:1002A8000800831603130715FF3092003F308312AE
:1002B800031397051708F0390C3897000F3095008D
:1002C800CF309705873092050330920412158C10B1
:1002D8008C1C6F2970296C298C1083160313071145
:1002E8000800FA007A088316031393003630831245
:1002F8000313940080308316031394000130910097
:10030800871507168B170B17831203138C11831687
:1003180003138C150800831203139F189429952939
:100328009C292130FA00FA0B9729831203139F1492
:020338000800BB
:04400E00C420FF3F8C
:00000001FF
