:020000040000FA
:060000000A128A110C280F
:10000800FE00030EF1000A08F2000A128A111828ED
:100018000A128A110F28F601F701F801F901FA010D
:1000280083010A128A11DE28831203138C1D1D28EE
:100038001E2876281412141B222823282728941FE8
:10004800262827282E281308F0007008FA00141311
:100058009413141683160313941A33283428522839
:100068001419372838285228831203131308F0006C
:100078007008FA008C11141683160313141C4528F3
:1000880046284028831203131308F0007008F8006C
:10009800A630F000F00B4E2800007328941A55285B
:1000A80056287328141D59285A28732883120313B5
:1000B8001308F0007008FA0083160313141076086A
:1000C8008312031393001416A630F000F00B6A286D
:1000D8000000831603131418722873286D288312DE
:1000E80003138C110C1F79287A287F281E08F0002A
:1000F8007008F9000C130B1C822883289228061814
:10010800862887288B280130F0007008F7078618A2
:100118008E288F2891280130F7020B1072088A0068
:10012800710E8300FE0E7E0E090001308316031740
:100138008800890103308316031385000330860085
:100148008701880170308F040F148F110A128A11E9
:100158003F210A128A11831203138518B428B5287F
:10016800CA280830F3000030F4000A128A1113215B
:100178000A128A110B17831603130C178B175030AA
:100188000A128A115F210A128A11DD28851CCD28DE
:10019800CE28DD288B1503308316031396008113B0
:1001A80001170330950030300A128A115F210A12B4
:1001B8008A1108000A128A1199200A128A118312D8
:1001C80003138518E828E92801290A128A117921D8
:1001D8000A128A117908F5007508F6007808031DD7
:1001E800F628F728FC287D30831203139500E928A8
:1001F800BC30831203139500E928851C04290529BE
:1002080010297708F5007508F6007808F50003103E
:10021800750C7D3E950005290A128A110C28831257
:1002280003131F14C3309F05831603139F131F1254
:100238009F12831203139F102E293F309F053E29DA
:100248001F083F3940389F003E291F083F39803832
:100258009F003E297408003A031933293E29730880
:10026800013A03192129053A031924290C3A0319DB
:1002780029293E290800831603130715FF30920029
:100288003F308312031397051708F0390C3897008D
:100298000F309500CF3097058730920503309204D0
:1002A80012158C108C1C59295A2956298C10831622
:1002B800031307110800F300730883160313930050
:1002C800363083120313940080308316031394008E
:1002D80001309100871507168B170B17831203132C
:1002E8008C11831603138C150800831203139F18AF
:1002F8007E297F2986292130F300F30B8129831277
:0603080003139F1408001E
:04400E00C420FF3F8C
:00000001FF
