:020000040000FA
:060000000A128A110C280F
:10000800FE00030EF1000A08F2000A128A111828ED
:100018000A128A110F28F601F701F801F901FA010D
:1000280083010A128A11DD28831203138C1D1D28EF
:100038001E2876281412141B222823282728941FE8
:10004800262827282E281308F0007008FA00141311
:100058009413141683160313941A33283428522839
:100068001419372838285228831203131308F0006C
:100078007008FA008C11141683160313141C4528F3
:1000880046284028831203131308F0007008F8006C
:10009800A630F000F00B4E2800007328941A55285B
:1000A80056287328141D59285A28732883120313B5
:1000B8001308F0007008FA0083160313141076086A
:1000C8008312031393001416A630F000F00B6A286D
:1000D8000000831603131418722873286D288312DE
:1000E80003138C110C1F79287A287F281E08F0002A
:1000F8007008F9000C130B1C822883289228061814
:10010800862887288C280130F0007008F707922885
:1001180086188F28902892280130F70272088A00E2
:10012800710E8300FE0E7E0E090001308316031740
:10013800880089010330831603138500860187012F
:10014800880170308F040F148F118B1783120313DB
:10015800851CAF28B028C9280830F3000030F40007
:100168000A128A110A210A128A110A128A113621E0
:100178000A128A110B17831603130C1730300A1250
:100188008A1156210A128A11DC288518CC28CD2814
:10019800DC288B150330831603139600811301178F
:1001A8000330950050300A128A1156210A128A111A
:1001B80008000A128A1199200A128A11831203135D
:1001C800851CE728E828FC280A128A1170210A12DF
:1001D8008A117808031DF128F228F7287D30831248
:1001E80003139500E828BC30831203139500E82810
:1001F8008518FF28002907297808F5000310750CD1
:100208007D3E950000290A128A110C2883120313D7
:100218001F14C3309F05831603139F131F129F12C9
:10022800831203139F1025293F309F0535291F0886
:100238003F3940389F0035291F083F3980389F00D3
:1002480035297408003A03192A2935297308013A0F
:1002580003191829053A03191B290C3A03192029EF
:1002680035290800831603130715FF3092003F3025
:100278008312031397051708F0390C3897000F30CD
:100288009500CF30970587309205033092041215F8
:100298008C108C1C502951294D298C10831603135E
:1002A80007110800F3007308831603139300363010
:1002B80083120313940080308316031394000130D3
:1002C8009100871507168B170B17831203138C11D0
:1002D800831603138C150800831203139F187529BE
:1002E80076297D292130F300F30B78298312031333
:0402F8009F14080047
:04400E00C420FF3F8C
:00000001FF
